:100246003F065B4F666D7D077F6F777C395E797100
:100256003D76110E7A3855543F7367506D783E3EA1
:100266006A766E5B7B745C1C6200FEFDFBF7EFDF5B
:07027600C0110E1515182937
:10033400011000011300011200011400010F00015B
:0B03440011000708140A18070C0C0039
:09039C00EDC394087480948022E2
:1002D800E4FDFCC3ED9FEC9E5015E4FBFA0BBB005C
:0F02E800010AEB64714A70F50DBD00010C80E452
:0102F70022E4
:09037F00007F027EC7DEFEDFFCF8
:010388002252
:09038900007F047E92DEFEDFFC21
:010392002248
:080393007F097EF4DEFEDFFCB1
:01039B00223F
:0D036300007F047E817D77DDFEDEFCDFFA89
:01037000226A
:0D037100007F087E017DF3DDFEDEFCDFFA7B
:01037E00225C
:0703A500C2A6C2A7D2AF22DD
:10031800D2A6ED90024693F580C2A67580FFD2A7BB
:0C032800EF90027093F580C2A702037FE3
:1002AB00EF75F06484FEEF75F00A8475F00A84AC88
:1002BB00F0EF75F00A84ABF0AD06E4FF120318AD56
:0D02CB00047F01120318AD037F0202031827
:10027D00AC03AB05AD07E4FF120318AD037F01120C
:10028D000318AD047F02120318AD187F0312031873
:0E029D00AD197F04120318AD1A7F0502031875
:1002F800900277E493FFA3E493FDA3E493FBA3E4C4
:1003080093F518A3E493F519A3E493F51A02027D73
:1001BF00D2A4E4FD12039C5017EF30E004D2A080CC
:1001CF0002C2A0D2A100C2A100EFC313FF0D80E4B1
:1001DF00E4FD12039C5018EEC313FE30A005430636
:1001EF0080800353067FD2A100C2A1000D80E3C21D
:0301FF00A4AF06A4
:0102020022D9
:10020300D2A4E4FEEE12039D5017EF30E004D2A017
:100213008002C2A0D2A100C2A100EFC313FF0E80CF
:10022300E3E4FEEE12039D5017ED30E004D2A0800C
:1002330002C2A0D2A100C2A100EDC313FD0E80E350
:02024300C2A453
:010245002296
:10008F00E4FFEFC3940774809480502174082FF815
:10009F00E6FE75F00A84C454F0FDEE75F00A84AEE6
:1000AF00F0ED2EFC74082FF8A6040F80D5E4FD7F29
:1000BF008E1202037D807F80120203AD087F8C12A7
:1000CF000203AD097F88120203AD0A7F8612020375
:1000DF00AD0B7F8A120203AD0C7F84120203AD0DAC
:1000EF007F82120203AD0E7F80120203E50E547F52
:0D00FF00FD7F801202037D807F8E020203D0
:10010C007F8D1201BF8F087F891201BF8F097F87F6
:10011C001201BF8F0A7F8B1201BF8F0B7F851201DB
:10012C00BF8F0C7F831201BF8F0D7F811201BFEF38
:10013C00547FF50EE4FFEFC3940774809480501C39
:10014C0074082FF8E6FEC4540F75F00AA4FDEE54A3
:0C015C000F2DFE74082FF8A6060F80DAA5
:010168002274
:100350007F811201BFC3EF948074809480400312A8
:03036000008F22E9
:0703AC00C2A4C2A1C2A022FD
:100169001203A51203AC12008F12035012010CE501
:100179000C75F00A84F510E50C75F00A8485F01306
:10018900E50D75F00A84F512E50D75F00A8485F020
:1001990014E50E75F00A84F50FE50E75F00A8485ED
:1001A900F011851418850F1985111AAB12AD13AF0B
:0601B9001012027D80B669
:03000000020003F8
:0C000300787FE4F6D8FD75811A02004AEF
:10000F00020169E493A3F8E493A34003F68001F29D
:10001F0008DFF48029E493A3F85407240CC8C333F2
:10002F00C4540F4420C8834004F456800146F6DFC1
:10003F00E4800B0102040810204080900334E47E1A
:10004F00019360BCA3FF543F30E509541FFEE493B6
:10005F00A360010ECF54C025E060A840B8E493A37D
:10006F00FAE493A3F8E493A3C8C582C8CAC583CAA8
:10007F00F0A3C8C582C8CAC583CADFE9DEE780BE60
:01034F0000AD
:00000001FF
