:10052900110E151518293F065B4F666D7D077F6F04
:10053900777C395E79713D76110E7A3855543F735F
:1005490067506D783E3E6A766E5B7B745C1C620018
:07055900FEFDFBF7EFDFC020
:100622000A0A4D656E20597568616E000C143138E6
:0E06320030353031303031393600020802C91F
:10040C00AE2BAF2CAB07AA06E4C39BFFE49AFE7499
:10041C00019400FDE49400FCE4FB7A01F9F8020479
:10042C00A9120711AFB07536008F375337F07536F8
:10043C000022E53764F0453622AFB07536008F37B1
:10044C00E536228F801206FDD2B41206FDC2B4220C
:1005E200E4FDFCC3ED9FEC9E5015E4FBFA0BBB004F
:0F05F200010AEB64714A70F50DBD00010C80E445
:0106010022D6
:0906F300007F027EC7DEFEDFFC81
:0106FC0022DB
:0906FD00007F047E92DEFEDFFCAA
:0107060022D0
:080711007F097EF4DEFEDFFC2F
:0107190022BD
:0D06D700007F047E817D77DDFEDEFCDFFA12
:0106E40022F3
:0D06E500007F087E017DF3DDFEDEFCDFFA04
:0106F20022E5
:040691008F38A905F0
:100695007F017E00AD0119ED6009AD387C001200C7
:0306A5003780F1AA
:0106A800222F
:07071A00C2A6C2A7D2AF2264
:1006A9008E328F33D2A91204108F8CAE32AF33122F
:0706B9000410AF038F8A2239
:01073D002299
:03000B0002045C90
:10045C00C0E0C0F0C083C082C0D075D000C000C066
:0D046C0001C002C003C004C005C006C007E7
:10047900752BC3752C5012040C8F8C12040CAF030E
:050489008F8A12073DFF
:10048E00D007D006D005D004D003D002D001D000C2
:0B049E00D0D0D082D083D0F0D0E0326C
:1006C0008E348F35D2AB1204108F8DAE34AF35120D
:0706D0000410AF038F8B2221
:01073E002298
:03001B000203627B
:10036200C0E0C0F0C083C082C0D075D000C000C061
:0D03720001C002C003C004C005C006C007E2
:10037F00752DC3752E50AE2DAF2E1204108F8DAE6E
:0D038F002DAF2E120410AF038F8B12073E0E
:10039C00D007D006D005D004D003D002D001D000B5
:0B03AC00D0D0D082D083D0F0D0E0325F
:05000600D2A8C288220F
:04072D0063900122B2
:03000300020731C0
:0407310012072D324C
:05000E00D2AAC28A2203
:0407350063900122AA
:03001300020739A8
:04073900120735323C
:10064100D2A6ED90052F93F580C2A67580FFD2A7A3
:0C065100EF90055993F580C2A70206F354
:10058E00EF75F06484FEEF75F00A8475F00A84ACA2
:10059E00F0EF75F00A84ABF0AD06E4FF120641AD44
:0D05AE00047F01120641AD037F02020641E9
:10056000AC03AB05AD07E4FF120641AD037F0112FA
:100570000641AD047F02120641AD237F03120641FE
:0E058000AD247F04120641AD257F0502064121
:10060200900529E493FFA3E493FDA3E493FBA3E401
:1006120093F523A3E493F524A3E493F5250205605F
:01073F002297
:010740002296
:010741002295
:010742002294
:1003B70020B41212071120B40312073F30B4FD1204
:1003C700071130B4FD20B51212071120B50312072B
:1003D7004030B5FD12071130B5FD20B612120711D6
:1003E70020B60312074130B6FD12071130B6FD20C3
:1003F700B71212071120B70312074230B7FD1207D1
:050407001130B7FD22D9
:010743002293
:010744002292
:010745002291
:010746002290
:01074700228F
:01074800228E
:01074900228D
:01074A00228C
:01074B00228B
:01074C00228A
:01074D002289
:01074E002288
:01074F002287
:010750002286
:010751002285
:010752002284
:10017C00E4F536F53775B0FEAFB0F5368F3753373B
:10018C00F0F53612043E604812042D12043E604015
:10019C001204457024E5372482601B24C0601224AD
:1001AC00E0600924F07012120743800D120744809E
:1001BC0008120745800312074612043E600512041C
:1001CC003080F612071112043E600512043080F6DE
:1001DC0075B0FD12043012043E604812042D120456
:1001EC003E60401204457024E5372483601B24C014
:1001FC00601224E0600924F07012120747800D127F
:10020C0007488008120749800312074A12043E600F
:10021C000512043080F612071112043E6005120418
:10022C003080F675B0FB12043012043E60481204A4
:10023C002D12043E60401204457024E5372485607D
:10024C001B24C0601224E0600924F0701212074BCA
:10025C00800D12074C800812074D800312074E12B6
:10026C00043E600512043080F612071112043E6041
:10027C000512043080F675B0F712043012043E609B
:10028C004812042D12043E60401204457024E537D8
:10029C002489601B24C0601224E0600924F07012D1
:1002AC0012074F800D12075080081207518003125D
:1002BC00075212043E600512043080F61207111228
:0902CC00043E600512043080F6C6
:0102D5002206
:06072100C2B512044F22D4
:06072700D2B512044F22BE
:050016007F010207213B
:10067800AC07EC7007ED2480FF120721EC640170D1
:0906880007ED24C0FF1207212236
:1005BB008B2F8A308931120678AB2FAA30A93112D2
:1005CB00001E6012782FE475F00112009E12001EBF
:0705DB00FF12072780E32255
:0404ED008A288B29A5
:1004F100E4FBFA120678EBC3952A502BC3E52A9B3D
:1005010014FD7F0A120691AC28AD29CFCDCFCECCF8
:10051100CE1200497C007D0A120049AA05EA243066
:07052100FF1207270B80CF3A
:0105280022B0
:10065D00C2B47F381207217F0E1207217F061207C1
:0B066D00217F011207217F810207217D
:0A07070012071A12000EC29180FCC6
:030000000202D623
:0C02D600787FE4F6D8FD75813802031D26
:10001E00BB010689828A83E0225002E722BBFE02E0
:09002E00E32289828A83E4932213
:10003700EF8DF0A4A8F0CF8CF0A428CE8DF0A42EDD
:02004700FE2297
:10004900BC000BBE0029EF8DF084FFADF022E4CC9B
:10005900F875F008EF2FFFEE33FEEC33FCEE9DEC64
:10006900984005FCEE9DFE0FD5F0E9E4CEFD22EDAA
:10007900F8F5F0EE8420D21CFEADF075F008EF2FF4
:10008900FFED33FD4007985006D5F0F222C398FDE5
:050099000FD5F0EA2282
:1004A900C2D5E830E70FB2D5E4C39BFBE49AFAE47E
:1004B90099F9E498F8EC30E717B2D51204DF120085
:1004C900EAE4C39BFBE49AFAE499F9E498F8800317
:1004D9001200EA30D50DE4C39FFFE49EFEE49DFDC2
:0404E900E49CFC2271
:10009E00FAE6FB0808E6F925F0F618E6CA3AF62263
:1002E200020707E493A3F8E493A34003F68001F224
:1002F20008DFF48029E493A3F85407240CC8C3331D
:10030200C4540F4420C8834004F456800146F6DFEB
:10031200E4800B0102040810204080900622E47E53
:10032200019360BCA3FF543F30E509541FFEE493E0
:10033200A360010ECF54C025E060A840B8E493A3A7
:10034200FAE493A3F8E493A3C8C582C8CAC583CAD2
:10035200F0A3C8C582C8CAC583CADFE9DEE780BE8A
:0106400000B9
:1000AE0075F008758200EF2FFFEE33FECD33CDCC09
:1000BE0033CCC58233C5829BED9AEC99E58298408C
:1000CE000CF582EE9BFEED9AFDEC99FC0FD5F0D669
:1000DE00E4CEFBE4CDFAE4CCF9A88222B800C1B993
:1000EE000059BA002DEC8BF084CFCECDFCE5F0CBD1
:1000FE00F97818EF2FFFEE33FEED33FDEC33FCEB0A
:10010E0033FB10D703994004EB99FB0FD8E5E4F9C4
:10011E00FA227818EF2FFFEE33FEED33FDEC33FCB1
:10012E00C933C910D7059BE99A4007EC9BFCE99AA5
:10013E00F90FD8E0E4C9FAE4CCFB2275F010EF2FEA
:10014E00FFEE33FEED33FDCC33CCC833C810D707EA
:10015E009BEC9AE899400AED9BFDEC9AFCE899F825
:0E016E000FD5F0DAE4CDFBE4CCFAE4C8F922B8
:00000001FF
