:06032400110E1515182949
:100246000A104D656E20597568616E000C1A3138BA
:1002560030353031303031393600020A02C9020CED
:0A026600000002080000020E000074
:10029300AE26AF27AB07AA06E4C39BFFE49AFE741E
:1002A300019400FDE49400FCE4FB7A01F9F80202F6
:0102B3000248
:1002B400E4FDFCC3ED9FEC9E5015E4FBFA0BBB0080
:0F02C400010AEB64714A70F50DBD00010C80E476
:0102D3002208
:09030700007F027EC7DEFEDFFC70
:0103100022CA
:09031100007F047E92DEFEDFFC99
:01031A0022C0
:08031B007F097EF4DEFEDFFC29
:0103230022B7
:0D02EB00007F047E817D77DDFEDEFCDFFA02
:0102F80022E3
:0D02F900007F087E017DF3DDFEDEFCDFFAF4
:0103060022D4
:07000300C2A6C2A7D2AF2282
:1002D4008E288F29D2A91202978F8CAE28AF2912AB
:0702E4000297AF038F8A228D
:10027100050DE50D7002050CC39405E50C940040D5
:1002810005E4F50CF50DE50D450C7003D28022C295
:020291008022C9
:03000B0002016887
:10016800C0E0C0F0C083C082C0D075D000C000C05D
:0D01780001C002C003C004C005C006C007DE
:100185007526007527C81202938F8C120293AF0350
:050195008F8A120271C7
:10019A00D007D006D005D004D003D002D001D000B9
:0B01AA00D0D0D082D083D0F0D0E03263
:1001B5001200037FC87E001202D4758901D28CC259
:1001C500907FF47E011202B4D290C2911202B4D291
:1001D50091C2921202B4D292C2931202B4D293C2C5
:1001E500941202B4D294C2951202B4D295C2961258
:0D01F50002B4D296C2971202B4D29780C213
:030000000200DC1F
:0C00DC00787FE4F6D8FD7581290201232D
:10020200C2D5E830E70FB2D5E4C39BFBE49AFAE427
:1002120099F9E498F8EC30E717B2D51202381200D7
:100222004AE4C39BFBE49AFAE499F9E498F8800360
:1002320012004A30D50DE4C39FFFE49EFEE49DFD0B
:04024200E49CFC221A
:1000E8000201B5E493A3F8E493A34003F68001F278
:1000F80008DFF48029E493A3F85407240CC8C33319
:10010800C4540F4420C8834004F456800146F6DFE7
:10011800E4800B0102040810204080900246E47E2F
:10012800019360BCA3FF543F30E509541FFEE493DC
:10013800A360010ECF54C025E060A840B8E493A3A3
:10014800FAE493A3F8E493A3C8C582C8CAC583CACE
:10015800F0A3C8C582C8CAC583CADFE9DEE780BE86
:01027000008D
:10000E0075F008758200EF2FFFEE33FECD33CDCCA9
:10001E0033CCC58233C5829BED9AEC99E58298402C
:10002E000CF582EE9BFEED9AFDEC99FC0FD5F0D609
:10003E00E4CEFBE4CDFAE4CCF9A88222B800C1B933
:10004E000059BA002DEC8BF084CFCECDFCE5F0CB71
:10005E00F97818EF2FFFEE33FEED33FDEC33FCEBAA
:10006E0033FB10D703994004EB99FB0FD8E5E4F965
:10007E00FA227818EF2FFFEE33FEED33FDEC33FC52
:10008E00C933C910D7059BE99A4007EC9BFCE99A46
:10009E00F90FD8E0E4C9FAE4CCFB2275F010EF2F8B
:1000AE00FFEE33FEED33FDCC33CCC833C810D7078B
:1000BE009BEC9AE899400AED9BFDEC9AFCE899F8C6
:0E00CE000FD5F0DAE4CDFBE4CCFAE4C8F92259
:00000001FF
