:10027F000E1B1B261B293F065B4F666D7D077F6F8D
:10028F00777C395E79713D76110E7A3855543F730C
:10029F0067506D783E3E6A766E5B7B745C1C6200C5
:0702AF00FEFDFBF7EFDFC0CD
:0603D00001100001110004
:1002E400AE08AF09AB07AA06E4C39BFFE49AFE7409
:1002F400019400FDE49400FCE4FB7A01F9F80202A5
:070304003B12034B020381D1
:10030B00E4FDFCC3ED9FEC9E5015E4FBFA0BBB0028
:0F031B00010AEB64714A70F50DBD00010C80E41E
:01032A0022B0
:0903AC00007F027EC7DEFEDFFCCB
:0103B5002225
:0903B600007F047E92DEFEDFFCF4
:0103BF00221B
:0803C0007F097EF4DEFEDFFC84
:0103C8002212
:0D039E00007F047E817D77DDFEDEFCDFFA4E
:0103AB00222F
:03037E0012034B1C
:0D038100007F087E017DF3DDFEDEFCDFFA6B
:01038E00224C
:0703C900C2A6C2A7D2AF22B9
:100367008E0A8F0BD2A91202E88F8CAE0AAF0B123E
:0703770002E8AF038F8A22A8
:0F038F000511E511643C7006F511F510C28C22C2
:03000B000201EE01
:1001EE00C0E0C0F0C083C082C0D075D000C000C0D7
:0D01FE0001C002C003C004C005C006C00758
:10020B007508C37509501202E48F8C1202E4AF0318
:05021B008F8A12038F21
:10022000D007D006D005D004D003D002D001D00032
:0B023000D0D0D082D083D0F0D0E032DC
:05000600D2A8D28822FF
:0603D700751001D28C221A
:030003000203DD18
:0403DD001203D732FE
:10034B00D2A6ED90028593F580C2A67580FFD2A749
:0C035B00EF9002AF93F580C2A70203AC44
:1002B600AC03AB05AD07E4FF12034BAD037F0112A0
:1002C600034BAD047F0212034BAD0D7F0312034BAC
:0E02D600AD0E7F0412034BAD0F7F0502034BEC
:10032B0090027FE493FFA3E493FDA3E493FBA3E488
:10033B0093F50DA3E493F50EA3E493F50F0202B628
:100168001203C91200067F507EC312036775890106
:10017800E5106401700512032B80F5E4FDFF1203FE
:100188007EE5106401700512032B80F57D017F0167
:1001980012037EE5106401700512032B80F57D02C1
:1001A8007F02120305E5106401700512032B80F528
:1001B8007D037F03120305E5106401700512032B0C
:1001C80080F57D047F04120305E5106401700512B3
:1001D800032B80F57D057F05120305E5106401708A
:0601E8008F12032B80F5CD
:030000000200DC1F
:0C00DC00787FE4F6D8FD75811102012345
:10023B00C2D5E830E70FB2D5E4C39BFBE49AFAE4EE
:10024B0099F9E498F8EC30E717B2D5120271120065
:10025B004AE4C39BFBE49AFAE499F9E498F8800327
:10026B0012004A30D50DE4C39FFFE49EFEE49DFDD2
:04027B00E49CFC22E1
:1000E800020168E493A3F8E493A34003F68001F2C5
:1000F80008DFF48029E493A3F85407240CC8C33319
:10010800C4540F4420C8834004F456800146F6DFE7
:10011800E4800B01020408102040809003D0E47EA4
:10012800019360BCA3FF543F30E509541FFEE493DC
:10013800A360010ECF54C025E060A840B8E493A3A3
:10014800FAE493A3F8E493A3C8C582C8CAC583CACE
:10015800F0A3C8C582C8CAC583CADFE9DEE780BE86
:0103D6000026
:10000E0075F008758200EF2FFFEE33FECD33CDCCA9
:10001E0033CCC58233C5829BED9AEC99E58298402C
:10002E000CF582EE9BFEED9AFDEC99FC0FD5F0D609
:10003E00E4CEFBE4CDFAE4CCF9A88222B800C1B933
:10004E000059BA002DEC8BF084CFCECDFCE5F0CB71
:10005E00F97818EF2FFFEE33FEED33FDEC33FCEBAA
:10006E0033FB10D703994004EB99FB0FD8E5E4F965
:10007E00FA227818EF2FFFEE33FEED33FDEC33FC52
:10008E00C933C910D7059BE99A4007EC9BFCE99A46
:10009E00F90FD8E0E4C9FAE4CCFB2275F010EF2F8B
:1000AE00FFEE33FEED33FDCC33CCC833C810D7078B
:1000BE009BEC9AE899400AED9BFDEC9AFCE899F8C6
:0E00CE000FD5F0DAE4CDFBE4CCFAE4C8F92259
:00000001FF
