:10067B003F065B4F666D7D077F6F777C395E7971C7
:07068B0000FEFDFBF7EFDFAD
:1005F9000A0C4D656E20597568616E000C1631380C
:0E06090030353031303031393600020A02C946
:10045100AE34AF35AB07AA06E4C39BFFE49AFE7442
:10046100019400FDE49400FCE4FB7A01F9F8020434
:10047100A11206B2AFB07538008F395339F0753813
:100481000022E53964F0453822AFB07538008F3964
:10049100E538228F801206A8D2B41206A8C2B4226F
:1005D900E4FDFCC3ED9FEC9E5015E4FBFA0BBB0058
:0F05E900010AEB64714A70F50DBD00010C80E44E
:0105F80022E0
:09000E00007F027EC7DEFEDFFC6C
:0100170022C6
:0906A800007F047E92DEFEDFFCFF
:0106B1002226
:0806B2007F097EF4DEFEDFFC8F
:0106BA00221D
:04064C008F3AA90533
:100650007F017E00AD0119ED6009AD3A7C00120109
:030660009180F195
:010663002274
:100692008E348F35D2A97589011204518F8C1204C0
:0606A20051AF038F8A2214
:0100090022D4
:03000B000203529B
:10035200C0E0C0F0C083C082C0D075D000C000C071
:0D03620001C002C003C004C005C006C007F2
:10036F00752DC3752E50AE2DAF2E1204558F8CAE3A
:0D037F002DAF2E120455AF038F8A12000916
:10038C00D007D006D005D004D003D002D001D000C5
:0B039C00D0D0D082D083D0F0D0E0326F
:100664008E368F37D2AB1204558F8DAE36AF37121C
:070674000455AF038F8B2238
:01000A0022D3
:03001B000203A736
:1003A700C0E0C0F0C083C082C0D075D000C000C01C
:0D03B70001C002C003C004C005C006C0079D
:1003C400752FC3753050AE2FAF301204558F8DAEDC
:0D03D4002FAF30120455AF038F8B12000ABB
:1003E100D007D006D005D004D003D002D001D00070
:0B03F100D0D0D082D083D0F0D0E0321A
:0506C100C2A6C2A72241
:0605960012059CAF040DEC
:10059C00D2A6EF90067B93F580C2A67580FFD2A7FA
:0C05AC00ED90068C93F580C2A702000EB3
:02054900AE07FB
:10054B00EE75F06484FDEE75F00A8475F00A84ACE8
:10055B00F0EE75F00A84ABF0AF05E4FD120596AF33
:05056B00030D02059CD8
:1005B800AC03AB05E4FD12059CAF030D1205960DC7
:1005C800AF2512059C0DAF2612059C0DAF2702051D
:0105D8009C86
:0100180022C5
:0100190022C4
:01001A0022C3
:0106CB00220C
:1003FC0020B4121206B220B40312001830B4FD124D
:10040C0006B230B4FD20B5121206B220B5031200AC
:10041C001930B5FD1206B230B5FD20B6121206B277
:10042C0020B60312001A30B6FD1206B230B6FD200B
:10043C00B7121206B220B7031206CB30B7FD120664
:05044C00B230B7FD22F3
:0106CC00220B
:0106CD00220A
:0106CE002209
:0106CF002208
:0106D0002207
:0106D1002206
:0106D2002205
:0106D3002204
:0106D4002203
:0106D5002202
:0106D6002201
:0106D7002200
:0106D80022FF
:0106D90022FE
:0106DA0022FD
:0106DB0022FC
:10001E00E4F538F53975B0FEAFB0F5388F39533990
:10002E00F0F53812048360481204721204836040A3
:10003E0012048A7024E5392482601B24C0601224C5
:10004E00E0600924F070121206CC800D1206CD80ED
:10005E00081206CE80031206CF1204836005120426
:10006E007580F61206B2120483600512047580F6CE
:10007E0075B0FD12047512048360481204721204E6
:10008E0083604012048A7024E5392483601B24C0E7
:10009E00601224E0600924F070121206D0800D1256
:1000AE0006D180081206D280031206D31204836092
:1000BE000512047580F61206B2120483600512044E
:1000CE007580F675B0FB1204751204836048120435
:1000DE0072120483604012048A7024E5392485600C
:1000EE001B24C0601224E0600924F070121206D4A2
:1000FE00800D1206D580081206D680031206D7127E
:10010E000483600512047580F61206B21204836031
:10011E000512047580F675B0F7120475120483602B
:10012E0048120472120483604012048A7024E53966
:10013E002489601B24C0601224E0600924F0701230
:10014E001206D8800D1206D980081206DA80031224
:10015E0006DB120483600512047580F61206B212D5
:09016E000483600512047580F69B
:010177002265
:06000300C2B512049422B4
:0606BB00D2B512049422E6
:0506C6007F01020003AA
:10063300AC07EC7007ED2480FF120003EC6401703B
:0906430007ED24C0FF12000322A0
:100521008B318A328933120633AB31AA32A93312A5
:10053100017860130533E5337002053214F91201B5
:0805410078FF1206BB80E222E4
:0404E5008A2A8B2BA9
:1004E900E4FBFA120633EBC3952C502BC3E52C9B86
:1004F90014FD7F0A12064CAC2AAD2BCFCDCFCECC42
:10050900CE1201A37C007D0A1201A3AA05EA2430B8
:07051900FF1206BB0B80CFAF
:0105200022B8
:10061800C2B47F381200037F0E1200037F06120057
:0B062800037F011200037F810200032A
:100570001206C17508007509FEC2A3AF098F9078F5
:1005800001EF08800123D8FD750800F5097F507E32
:06059000001205D980E510
:030000000202C633
:0C02C600787FE4F6D8FD75813A02030D44
:10017800BB010689828A83E0225002E722BBFE0285
:09018800E32289828A83E49322B8
:10019100EF8DF0A4A8F0CF8CF0A428CE8DF0A42E82
:0201A100FE223C
:1001A300BC000BBE0029EF8DF084FFADF022E4CC40
:1001B300F875F008EF2FFFEE33FEEC33FCEE9DEC09
:1001C300984005FCEE9DFE0FD5F0E9E4CEFD22ED4F
:1001D300F8F5F0EE8420D21CFEADF075F008EF2F99
:1001E300FFED33FD4007985006D5F0F222C398FD8A
:0501F3000FD5F0EA2227
:1004A100C2D5E830E70FB2D5E4C39BFBE49AFAE486
:1004B10099F9E498F8EC30E717B2D51204D7120293
:1004C10034E4C39BFBE49AFAE499F9E498F88003D5
:1004D10012023430D50DE4C39FFFE49EFEE49DFD7E
:0404E100E49CFC2279
:1002D200020570E493A3F8E493A34003F68001F2CD
:1002E20008DFF48029E493A3F85407240CC8C3332D
:1002F200C4540F4420C8834004F456800146F6DFFC
:10030200E4800B01020408102040809005F9E47E8D
:10031200019360BCA3FF543F30E509541FFEE493F0
:10032200A360010ECF54C025E060A840B8E493A3B7
:10033200FAE493A3F8E493A3C8C582C8CAC583CAE2
:10034200F0A3C8C582C8CAC583CADFE9DEE780BE9A
:0106170000E2
:1001F80075F008758200EF2FFFEE33FECD33CDCCBE
:1002080033CCC58233C5829BED9AEC99E582984040
:100218000CF582EE9BFEED9AFDEC99FC0FD5F0D61D
:10022800E4CEFBE4CDFAE4CCF9A88222B800C1B947
:100238000059BA002DEC8BF084CFCECDFCE5F0CB85
:10024800F97818EF2FFFEE33FEED33FDEC33FCEBBE
:1002580033FB10D703994004EB99FB0FD8E5E4F979
:10026800FA227818EF2FFFEE33FEED33FDEC33FC66
:10027800C933C910D7059BE99A4007EC9BFCE99A5A
:10028800F90FD8E0E4C9FAE4CCFB2275F010EF2F9F
:10029800FFEE33FEED33FDCC33CCC833C810D7079F
:1002A8009BEC9AE899400AED9BFDEC9AFCE899F8DA
:0E02B8000FD5F0DAE4CDFBE4CCFAE4C8F9226D
:00000001FF
