:030000000203B048
:0C03B000787FE4F6D8FD75813A0203F76F
:1006B900110E151518293F065B4F666D7D077F6F73
:1006C900777C395E79713D76110E7A3855543F73CE
:1006D90067506D783E3E6A766E5B7B745C1C620087
:0706E900FEFDFBF7EFDFC08F
:1007D2000A0C4D656E20597568616E000C16313831
:0E07E20030353031303031393600020A02C96C
:10077300E4FDFCC3ED9FEC9E5015E4FBFA0BBB00BC
:0F078300010AEB64714A70F50DBD00010C80E4B2
:010792002244
:09000E00007F027EC7DEFEDFFC6C
:0100170022C6
:07084F008F80120856D2B49D
:09085600007F047E92DEFEDFFC4F
:01085F002276
:08087C007F097EF4DEFEDFFCC3
:010884002251
:0D086000007F047E817D77DDFEDEFCDFFA87
:01086D002268
:0D086E00007F087E017DF3DDFEDEFCDFFA79
:01087B00225A
:040825008F3AA90558
:100829007F017E00AD0119ED6009AD3A7C0012022D
:030839007B80F1D0
:01083C002299
:07088D00C2A6C2A7D2AF22F0
:1005A3008E368F37D2A9AB07AA06E4C39BFFE49A22
:1005B300FE74019400FDE49400FCE4FB7A01F9F875
:1005C3001206398F8CAE36AF37AB07AA06E4C39B4E
:1005D300FFE49AFE74019400FDE49400FCE4FB7ACA
:0B05E30001F9F8120639AF038F8A22DD
:0100180022C5
:03000B0002043CB0
:10043C00C0E0C0F0C083C082C0D075D000C000C086
:0D044C0001C002C003C004C005C006C00707
:10045900752AC3752B50AE2AAF2BAB07AA06E4C386
:100469009BFFE49AFE74019400FDE49400FCE4FB14
:100479007A01F9F81206398F8CAE2AAF2BAB07AA8D
:1004890006E4C39BFFE49AFE74019400FDE4940022
:10049900FCE4FB7A01F9F8120639AF038F8A1200DE
:0104A900183A
:1004AA00D007D006D005D004D003D002D001D000A6
:0B04BA00D0D0D082D083D0F0D0E03250
:1005EE008E388F39D2ABAB07AA06E4C39BFFE49AD1
:1005FE00FE74019400FDE49400FCE4FB7A01F9F82A
:10060E001206398F8DAE38AF39AB07AA06E4C39BFD
:10061E00FFE49AFE74019400FDE49400FCE4FB7A7E
:0B062E0001F9F8120639AF038F8B2290
:0100190022C4
:03001B000204C517
:1004C500C0E0C0F0C083C082C0D075D000C000C0FD
:0D04D50001C002C003C004C005C006C0077E
:1004E200752CC3752D50AE2CAF2DAB07AA06E4C3F5
:1004F2009BFFE49AFE74019400FDE49400FCE4FB8B
:100502007A01F9F81206398F8DAE2CAF2DAB07AAFE
:1005120006E4C39BFFE49AFE74019400FDE4940098
:10052200FCE4FB7A01F9F8120639AF038F8B120053
:0105320019AF
:10053300D007D006D005D004D003D002D001D0001C
:0B054300D0D0D082D083D0F0D0E032C6
:1007B300E4F580D2A6ED9006BF93F580C2A67580BE
:0F07C300FFD2A7EF9006E993F580C2A702000EC0
:10071E00EF75F06484FEEF75F00A8475F00A84AC10
:10072E00F0EF75F00A84ABF0AD06E4FF1207B3AD3F
:0D073E00047F011207B3AD037F020207B371
:1006F000AC03AB05AD07E4FF1207B3AD037F0112F6
:1007000007B3AD047F021207B3AD257F031207B311
:0E071000AD267F041207B3AD277F050207B3A5
:100793009006B9E493FFA3E493FDA3E493FBA3E4DE
:1007A30093F525A3E493F526A3E493F5270206F036
:01001A0022C3
:0108D90022FC
:0108DA0022FB
:0108DB0022FA
:10054E0020B41212087C20B40312001A30B4FD122B
:10055E00087C30B4FD20B51212087C20B5031208B9
:10056E00D930B5FD12087C30B5FD20B61212087CCC
:10057E0020B6031208DA30B6FD12087C30B6FD2024
:10058E00B71212087C20B7031208DB30B7FD120831
:05059E007C30B7FD22D6
:04089900E4F5092257
:04089D0075090122B6
:0408A10075090222B1
:0408A50075090322AC
:0408A90075090422A7
:0408AD0075090522A2
:0408B100750906229D
:0408B5007509072298
:0408B9007509082293
:0408BD00750909228E
:0408C10075090A2289
:0408C50075090B2284
:0408C90075090C227F
:0408CD0075090D227A
:0408D10075090E2275
:0408D50075090F2270
:10001E00E4F528F52975B0FEAFB0F5288F295329E0
:10002E00F0F528E52964F04528607812087CAFB019
:10003E007528008F295329F0752800E52964F045AD
:10004E00286060AFB07528008F29E5287024E52957
:10005E002482601B24C0601224E0600924F0701218
:10006E00120899800D12089D80081208A1800312B3
:10007E0008A5E52964F04528600FAFB07528008FFC
:10008E00295329F075280080E912087CE52964F0CF
:10009E004528600FAFB07528008F295329F07528B9
:1000AE000080E975B0FDAFB07528008F295329F097
:1000BE00752800E52964F04528607812087CAFB0F9
:1000CE007528008F295329F0752800E52964F0451D
:1000DE00286060AFB07528008F29E5287024E529C7
:1000EE002483601B24C0601224E0600924F0701287
:1000FE001208A9800D1208AD80081208B1800312F3
:10010E0008B5E52964F04528600FAFB07528008F5B
:10011E00295329F075280080E912087CE52964F03E
:10012E004528600FAFB07528008F295329F0752828
:10013E000080E975B0FBAFB07528008F295329F008
:10014E00752800E52964F04528607812087CAFB068
:10015E007528008F295329F0752800E52964F0458C
:10016E00286060AFB07528008F29E5287024E52936
:10017E002485601B24C0601224E0600924F07012F4
:10018E001208B9800D1208BD80081208C180031232
:10019E0008C5E52964F04528600FAFB07528008FBB
:1001AE00295329F075280080E912087CE52964F0AE
:1001BE004528600FAFB07528008F295329F0752898
:1001CE000080E975B0F7AFB07528008F295329F07C
:1001DE00752800E52964F04528607812087CAFB0D8
:1001EE007528008F295329F0752800E52964F045FC
:1001FE00286060AFB07528008F29E5287024E529A6
:10020E002489601B24C0601224E0600924F070125F
:10021E001208C9800D1208CD80081208D180031271
:10022E0008D5E52964F04528600FAFB07528008F1A
:10023E00295329F075280080E912087CE52964F01D
:10024E004528600FAFB07528008F295329F0752807
:03025E000080E934
:01026100227A
:08000300C2B512084FC2B4227D
:08088500D2B512084FC2B422E3
:050894007F01020003DA
:10080C00AC07EC7007ED2480FF120003EC64017060
:09081C0007ED24C0FF12000322C5
:10074B008B338A34893512080CAB33AA34A9351292
:10075B00026260130535E5357002053414F9120297
:08076B0062FF12088580E22202
:04067D008A308B3103
:10068100E4FBFA12080CEBC39532502BC3E5329B05
:1006910014FD7F0A120825AC30AD31CFCDCFCECCC1
:1006A100CE12028D7C007D0A12028DAA05EA243049
:0706B100FF1208850B80CF4A
:0106B800221F
:1007F100C2B47F381200037F0E1200037F0612007D
:0B080100037F011200037F810200034F
:10083D0012088D75092912001EAD097F061207B326
:02084D0080F435
:1003BC0002083DE493A3F8E493A34003F68001F212
:1003CC0008DFF48029E493A3F85407240CC8C33342
:1003DC00C4540F4420C8834004F456800146F6DF11
:1003EC00E4800B01020408102040809007D2E47EC8
:1003FC00019360BCA3FF543F30E509541FFEE49306
:10040C00A360010ECF54C025E060A840B8E493A3CC
:10041C00FAE493A3F8E493A3C8C582C8CAC583CAF7
:10042C00F0A3C8C582C8CAC583CADFE9DEE780BEAF
:0107F0000008
:10026200BB010689828A83E0225002E722BBFE029A
:09027200E32289828A83E49322CD
:10027B00EF8DF0A4A8F0CF8CF0A428CE8DF0A42E97
:02028B00FE2251
:10028D00BC000BBE0029EF8DF084FFADF022E4CC55
:10029D00F875F008EF2FFFEE33FEEC33FCEE9DEC1E
:1002AD00984005FCEE9DFE0FD5F0E9E4CEFD22ED64
:1002BD00F8F5F0EE8420D21CFEADF075F008EF2FAE
:1002CD00FFED33FD4007985006D5F0F222C398FD9F
:0502DD000FD5F0EA223C
:10063900C2D5E830E70FB2D5E4C39BFBE49AFAE4EC
:1006490099F9E498F8EC30E717B2D512066F12035E
:100659001EE4C39BFBE49AFAE499F9E498F8800351
:1006690012031E30D50DE4C39FFFE49EFEE49DFDF9
:04067900E49CFC22DF
:1002E20075F008758200EF2FFFEE33FECD33CDCCD3
:1002F20033CCC58233C5829BED9AEC99E582984056
:100302000CF582EE9BFEED9AFDEC99FC0FD5F0D632
:10031200E4CEFBE4CDFAE4CCF9A88222B800C1B95C
:100322000059BA002DEC8BF084CFCECDFCE5F0CB9A
:10033200F97818EF2FFFEE33FEED33FDEC33FCEBD3
:1003420033FB10D703994004EB99FB0FD8E5E4F98E
:10035200FA227818EF2FFFEE33FEED33FDEC33FC7B
:10036200C933C910D7059BE99A4007EC9BFCE99A6F
:10037200F90FD8E0E4C9FAE4CCFB2275F010EF2FB4
:10038200FFEE33FEED33FDCC33CCC833C810D707B4
:100392009BEC9AE899400AED9BFDEC9AFCE899F8EF
:0E03A2000FD5F0DAE4CDFBE4CCFAE4C8F92282
:00000001FF
