:10056100110E151518293F065B4F666D7D077F6FCC
:10057100777C395E79713D76110E7A3855543F7327
:1005810067506D783E3E6A766E5B7B745C1C6200E0
:07059100FEFDFBF7EFDFC0E8
:1005CA000A114D656E20597568616E000C1B313831
:1005DA0030353031303031393600020F02C9010A64
:1005EA0000010B00010800010900010CFE020D01C7
:0105FA00B050
:10040C00AE27AF28AB07AA06E4C39BFFE49AFE74A1
:10041C00019400FDE49400FCE4FB7A01F9F8020479
:10042C00A9120789AFB07539008F3A533AF0753974
:10043C000022E53A64F0453922AFB07539008F3AA5
:10044C00E539228F8012077FD2B412077FC2B42203
:1006A900E4FDFCC3ED9FEC9E5015E4FBFA0BBB0087
:0F06B900010AEB64714A70F50DBD00010C80E47D
:0106C800220F
:09000E00007F027EC7DEFEDFFC6C
:0100170022C6
:09077F00007F047E92DEFEDFFC27
:01078800224E
:080789007F097EF4DEFEDFFCB7
:010791002245
:040739008F3BA90544
:10073D007F017E00AD0119ED6009AD3B7C0012001B
:03074D003780F101
:010750002286
:07000300C2A6C2A7D2AF2282
:100751008E2B8F2CD2A91204108F8CAE2BAF2C12A2
:070761000410AF038F8A2290
:10052900050AE5087018E50A640A702BF50AAF0C8C
:100539007801EF08800123D8FDF50CF59022E50A32
:10054900540370036390FFE50A643C700AC28CF59A
:080559000A7590FF75090122EB
:03000B0002045C90
:10045C00C0E0C0F0C083C082C0D075D000C000C066
:0D046C0001C002C003C004C005C006C007E7
:100479007527C375285012040C8F8C12040CAF0316
:050489008F8A12052915
:10048E00D007D006D005D004D003D002D001D000C2
:0B049E00D0D0D082D083D0F0D0E0326C
:100768008E2B8F2CD2AB1204108F8DAE2BAF2C1288
:070778000410AF038F8B2278
:10059800050BE50B64027029F50BE50E150E7002CC
:1005A800150DE50EB48E1AE50DB40115C28EC28C78
:1005B800758C3C758AB0E4F50AD28C7590FF750885
:0205C80001220E
:03001B000203627B
:10036200C0E0C0F0C083C082C0D075D000C000C061
:0D03720001C002C003C004C005C006C007E2
:10037F007529C3752A50AE29AF2A1204108F8DAE7E
:0D038F0029AF2A120410AF038F8B120598BE
:10039C00D007D006D005D004D003D002D001D000B5
:0B03AC00D0D0D082D083D0F0D0E0325F
:1006E900D2A6ED90056793F580C2A67580FFD2A7C3
:0C06F900EF90059193F580C2A702000E5F
:10062A00EF75F06484FEEF75F00A8475F00A84AC05
:10063A00F0EF75F00A84ABF0AD06E4FF1206E9ADFF
:0D064A00047F011206E9AD037F020206E9FC
:1005FC00AC03AB05AD07E4FF1206E9AD037F0112B6
:10060C0006E9AD047F021206E9AD2E7F031206E95E
:0E061C00AD2F7F041206E9AD307F050206E91E
:1006C900900561E493FFA3E493FDA3E493FBA3E402
:1006D90093F52EA3E493F52FA3E493F5300205FCDB
:01000A0022D3
:0100180022C5
:0100190022C4
:01001A0022C3
:1003B70020B41212078920B40312000A30B4FD12C8
:1003C700078930B4FD20B51212078920B503120042
:1003D7001830B5FD12078930B5FD20B6121207890E
:1003E70020B60312001930B6FD12078930B6FD207A
:1003F700B71212078920B70312001A30B7FD120788
:050407008930B7FD2261
:0107A3002233
:0107A4002232
:0107A5002231
:0107A6002230
:0107A700222F
:0107A800222E
:0107A900222D
:0107AA00222C
:0107AB00222B
:0107AC00222A
:0107AD002229
:0107AE002228
:0107AF002227
:0107B0002226
:0107B1002225
:0107B2002224
:10017C00E4F539F53A75B0FEAFB0F5398F3A533A2C
:10018C00F0F53912043E604812042D12043E604012
:10019C001204457024E53A2482601B24C0601224AA
:1001AC00E0600924F070121207A3800D1207A480DE
:1001BC00081207A580031207A612043E600512045C
:1001CC003080F612078912043E600512043080F666
:1001DC0075B0FD12043012043E604812042D120456
:1001EC003E60401204457024E53A2483601B24C011
:1001FC00601224E0600924F070121207A7800D121F
:10020C0007A880081207A980031207AA12043E60EF
:10021C000512043080F612078912043E60051204A0
:10022C003080F675B0FB12043012043E60481204A4
:10023C002D12043E60401204457024E53A2485607A
:10024C001B24C0601224E0600924F070121207AB6A
:10025C00800D1207AC80081207AD80031207AE1296
:10026C00043E600512043080F612078912043E60C9
:10027C000512043080F675B0F712043012043E609B
:10028C004812042D12043E60401204457024E53AD5
:10029C002489601B24C0601224E0600924F07012D1
:1002AC001207AF800D1207B080081207B18003123D
:1002BC0007B212043E600512043080F61207891250
:0902CC00043E600512043080F6C6
:0102D5002206
:06079200C2B512044F2263
:06079800D2B512044F224D
:05079E007F010207923B
:10072000AC07EC7007ED2480FF120792EC640170B7
:0907300007ED24C0FF120792221C
:100682008B368A378938120720AB36AA37A9381237
:10069200001E60127836E475F00112009E12001EF0
:0706A200FF12079880E3221C
:0404ED008A338B348F
:1004F100E4FBFA120720EBC39535502BC3E5359B7E
:1005010014FD7F0A120739AC33AD34CFCDCFCECC39
:10051100CE1200497C007D0A120049AA05EA243066
:07052100FF1207980B80CFC9
:0105280022B0
:10070500C2B47F381207927F0E1207927F06120736
:0B071500927F011207927F8102079281
:10065700120003850C907589117F507EC3120751D4
:100667007F507EC3120768D28CD28EE5097007AF20
:0B0677000E12062A80F51206C980F062
:030000000202D623
:0C02D600787FE4F6D8FD75813B02031D23
:10001E00BB010689828A83E0225002E722BBFE02E0
:09002E00E32289828A83E4932213
:10003700EF8DF0A4A8F0CF8CF0A428CE8DF0A42EDD
:02004700FE2297
:10004900BC000BBE0029EF8DF084FFADF022E4CC9B
:10005900F875F008EF2FFFEE33FEEC33FCEE9DEC64
:10006900984005FCEE9DFE0FD5F0E9E4CEFD22EDAA
:10007900F8F5F0EE8420D21CFEADF075F008EF2FF4
:10008900FFED33FD4007985006D5F0F222C398FDE5
:050099000FD5F0EA2282
:1004A900C2D5E830E70FB2D5E4C39BFBE49AFAE47E
:1004B90099F9E498F8EC30E717B2D51204DF120085
:1004C900EAE4C39BFBE49AFAE499F9E498F8800317
:1004D9001200EA30D50DE4C39FFFE49EFEE49DFDC2
:0404E900E49CFC2271
:10009E00FAE6FB0808E6F925F0F618E6CA3AF62263
:1002E200020657E493A3F8E493A34003F68001F2D5
:1002F20008DFF48029E493A3F85407240CC8C3331D
:10030200C4540F4420C8834004F456800146F6DFEB
:10031200E4800B01020408102040809005CAE47EAC
:10032200019360BCA3FF543F30E509541FFEE493E0
:10033200A360010ECF54C025E060A840B8E493A3A7
:10034200FAE493A3F8E493A3C8C582C8CAC583CAD2
:10035200F0A3C8C582C8CAC583CADFE9DEE780BE8A
:0105FB0000FF
:1000AE0075F008758200EF2FFFEE33FECD33CDCC09
:1000BE0033CCC58233C5829BED9AEC99E58298408C
:1000CE000CF582EE9BFEED9AFDEC99FC0FD5F0D669
:1000DE00E4CEFBE4CDFAE4CCF9A88222B800C1B993
:1000EE000059BA002DEC8BF084CFCECDFCE5F0CBD1
:1000FE00F97818EF2FFFEE33FEED33FDEC33FCEB0A
:10010E0033FB10D703994004EB99FB0FD8E5E4F9C4
:10011E00FA227818EF2FFFEE33FEED33FDEC33FCB1
:10012E00C933C910D7059BE99A4007EC9BFCE99AA5
:10013E00F90FD8E0E4C9FAE4CCFB2275F010EF2FEA
:10014E00FFEE33FEED33FDCC33CCC833C810D707EA
:10015E009BEC9AE899400AED9BFDEC9AFCE899F825
:0E016E000FD5F0DAE4CDFBE4CCFAE4C8F922B8
:00000001FF
