:0300EB0001080009
:1000030075985075CADC75CCDC75CBFF75CDFF7563
:07001300C834D2ACD2AF22C9
:030023000200B226
:1000B200C0E0C0D075D000C007309821C298AF9977
:1000C200EF647F70150508D3E508940A7480948064
:1000D200400B75080075E7608003750800309902CF
:0900E200C299D007D0D0D0E03261
:06001A00120003C2932254
:03000000020026D5
:0C002600787FE4F6D8FD75810802006DBB
:1000320002001AE493A3F8E493A34003F68001F2CA
:1000420008DFF48029E493A3F85407240CC8C333CF
:10005200C4540F4420C8834004F456800146F6DF9E
:10006200E4800B01020408102040809000EBE47E43
:10007200019360BCA3FF543F30E509541FFEE49393
:10008200A360010ECF54C025E060A840B8E493A35A
:10009200FAE493A3F8E493A3C8C582C8CAC583CA85
:1000A200F0A3C8C582C8CAC583CADFE9DEE780BE3D
:0100EE000011
:00000001FF
