:03000000020317E1
:0C031700787FE4F6D8FD75811402035EC7
:10054B003F065B4F666D7D077F6F777C395E7971F8
:0B055B00FEFDFBF7EFDF767938383F3C
:10056600010A00010B00010800010900010CFE024E
:030576000D01B0C4
:1004ED00E493F580C2A67580FFD2A790055CE493D6
:0404FD00F580C2A71D
:10050100E4FDFCC3ED9FEC9E5015E4FBFA0BBB0030
:0F051100010AEB64714A70F50DBD00010C80E426
:0105200022B8
:10026100EF75F06484F50FEF75F00A8475F00A8478
:1002710085F010EF75F00A84A9F0D2A6900552E43A
:1002810093F580C2A67580FFD2A790055BE493F534
:1002910080C2A77F017E00120501D2A690055112EE
:1002A10004EDD2A6900550E493F580C2A67580FFB7
:1002B100D2A790055D1204FBD2A6E50F90054B93E2
:1002C100F580C2A67580FFD2A790055EE493F58004
:1002D100C2A77F01120501D2A6E51090054B93F547
:1002E10080C2A67580FFD2A790055FE493F580C216
:1002F100A77F01120501D2A6AF01EF90054B93F53F
:1003010080C2A67580FFD2A7900560E493F580C2F4
:06031100A77F01020501B7
:1003A300D2A6900561E493F580C2A67580FFD2A71B
:1003B30090055BE493F580C2A77F017E00120501DF
:1003C300D2A69005621204EDD2A6900563E493F5DC
:1003D30080C2A67580FFD2A790055D1204FBD2A64A
:1003E300900564E493F580C2A67580FFD2A79005BB
:1003F3005E1204FBD2A6900565E493F580C2A67550
:1004030080FFD2A790055FE493F580C2A7020501A0
:100413008E0F8F10D2A9AB07AA06E4C39BFFE49A01
:10042300FE74019400FDE49400FCE4FB7A01F9F806
:100433001204A98F8CAE0FAF10AB07AA06E4C39BBF
:10044300FFE49AFE74019400FDE49400FCE4FB7A5B
:0B04530001F9F81204A9AF038F8A2200
:03000B000200EC04
:1000EC00C0E0C0F0C083C082C0D075D000C000C0DA
:0D00FC0001C002C003C004C005C006C0075B
:100109007511C3751250AE11AF12AB07AA06E4C33D
:100119009BFFE49AFE74019400FDE49400FCE4FB67
:100129007A01F9F81204A98F8CAE11AF12AB07AAA4
:1001390006E4C39BFFE49AFE74019400FDE4940075
:10014900FCE4FB7A01F9F81204A9AF038F8A050AC6
:10015900E5087019E50A640A702CF50AAF0C7801F4
:10016900EF08800123D8FDF50CF5908019E50A54B4
:100179000370036390FFE50A643C700AC28CF50AB8
:060189007590FF750901ED
:10018F00D007D006D005D004D003D002D001D000C4
:0B019F00D0D0D082D083D0F0D0E0326E
:10045E008E0F8F10D2ABAB07AA06E4C39BFFE49AB4
:10046E00FE74019400FDE49400FCE4FB7A01F9F8BB
:10047E001204A98F8DAE0FAF10AB07AA06E4C39B73
:10048E00FFE49AFE74019400FDE49400FCE4FB7A10
:0B049E0001F9F81204A9AF038F8B22B4
:03001B000201AA35
:1001AA00C0E0C0F0C083C082C0D075D000C000C01B
:0D01BA0001C002C003C004C005C006C0079C
:1001C7007513C3751450AE13AF14AB07AA06E4C377
:1001D7009BFFE49AFE74019400FDE49400FCE4FBA9
:1001E7007A01F9F81204A98F8DAE13AF14AB07AAE1
:1001F70006E4C39BFFE49AFE74019400FDE49400B7
:10020700FCE4FB7A01F9F81204A9AF038F8B050B05
:10021700E50B64027029F50BE50E150E7002150D3E
:10022700E50EB48E1AE50DB40115C28EC28C758C1D
:0F0237003C758AB0750A00D28C7590FF7508016E
:10024600D007D006D005D004D003D002D001D0000C
:0B025600D0D0D082D083D0F0D0E032B6
:10052100850C90D2AF7589117F507EC31204137F61
:10053100507EC312045ED28CD28EE5097007AF0ED5
:0A05410012026180F51203A380F09E
:10032300020521E493A3F8E493A34003F68001F2CA
:1003330008DFF48029E493A3F85407240CC8C333DB
:10034300C4540F4420C8834004F456800146F6DFAA
:10035300E4800B0102040810204080900566E47ECF
:10036300019360BCA3FF543F30E509541FFEE4939F
:10037300A360010ECF54C025E060A840B8E493A366
:10038300FAE493A3F8E493A3C8C582C8CAC583CA91
:10039300F0A3C8C582C8CAC583CADFE9DEE780BE49
:010579000081
:1004A900C2D5E830E70FB2D5E4C39BFBE49AFAE47E
:1004B90099F9E498F8EC30E717B2D51204DF120085
:1004C9005AE4C39BFBE49AFAE499F9E498F88003A7
:1004D90012005A30D50DE4C39FFFE49EFEE49DFD52
:0404E900E49CFC2271
:10001E0075F008758200EF2FFFEE33FECD33CDCC99
:10002E0033CCC58233C5829BED9AEC99E58298401C
:10003E000CF582EE9BFEED9AFDEC99FC0FD5F0D6F9
:10004E00E4CEFBE4CDFAE4CCF9A88222B800C1B923
:10005E000059BA002DEC8BF084CFCECDFCE5F0CB61
:10006E00F97818EF2FFFEE33FEED33FDEC33FCEB9A
:10007E0033FB10D703994004EB99FB0FD8E5E4F955
:10008E00FA227818EF2FFFEE33FEED33FDEC33FC42
:10009E00C933C910D7059BE99A4007EC9BFCE99A36
:1000AE00F90FD8E0E4C9FAE4CCFB2275F010EF2F7B
:1000BE00FFEE33FEED33FDCC33CCC833C810D7077B
:1000CE009BEC9AE899400AED9BFDEC9AFCE899F8B6
:0E00DE000FD5F0DAE4CDFBE4CCFAE4C8F92249
:00000001FF
