:10056600110E151518293F065B4F666D7D077F6FC7
:10057600777C395E79713D76110E7A3855543F7322
:1005860067506D783E3E6A766E5B7B745C1C6200DB
:07059600FEFDFBF7EFDFC0E3
:1005F8000A104D656E20597568616E000C1A313805
:1006080030353031303031393600020A02C9020C37
:0A061800000002080000020E0000BE
:10040C00AE2CAF2DAB07AA06E4C39BFFE49AFE7497
:10041C00019400FDE49400FCE4FB7A01F9F8020479
:10042C00A9120772AFB0753C008F3D533DF0753C7F
:10043C000022E53D64F0453C22AFB0753C008F3D99
:10044C00E53C228F80120768D2B4120768C2B4222E
:10066C00E4FDFCC3ED9FEC9E5015E4FBFA0BBB00C4
:0F067C00010AEB64714A70F50DBD00010C80E4BA
:01068B00224C
:09075E00007F027EC7DEFEDFFC15
:01076700226F
:09076800007F047E92DEFEDFFC3E
:010771002265
:080772007F097EF4DEFEDFFCCE
:01077A00225C
:0D074200007F047E817D77DDFEDEFCDFFAA6
:01074F002287
:0D075000007F087E017DF3DDFEDEFCDFFA98
:01075D002279
:0406FC008F3EA9057F
:100700007F017E00AD0119ED6009AD3E7C00120055
:030710003780F13E
:0107130022C3
:07077B00C2A6C2A7D2AF2203
:100714008E308F31D2A91204108F8CAE30AF3112CB
:070724000410AF038F8A22CD
:10064A00050DE50D7002050CC39405E50C940040F8
:10065A0005E4F50CF50DE50D450C7003D28022C2B8
:02066A008022EC
:03000B0002045C90
:10045C00C0E0C0F0C083C082C0D075D000C000C066
:0D046C0001C002C003C004C005C006C007E7
:10047900752C00752DFA12040C8F8C12040CAF0325
:050489008F8A12064AF3
:10048E00D007D006D005D004D003D002D001D000C2
:0B049E00D0D0D082D083D0F0D0E0326C
:10072B008E3A8F3BD2AB1204108F8DAE3AAF3B1289
:07073B000410AF038F8B22B5
:010796002240
:03001B000203627B
:10036200C0E0C0F0C083C082C0D075D000C000C061
:0D03720001C002C003C004C005C006C007E2
:10037F00752EC3752F50AE2EAF2F1204108F8DAE6A
:0D038F002EAF2F120410AF038F8B120796B4
:10039C00D007D006D005D004D003D002D001D000B5
:0B03AC00D0D0D082D083D0F0D0E0325F
:05000600D2A8C288220F
:01079700223F
:0300030002078E63
:04078E001207973285
:05000E00D2AAC28A2203
:01079800223E
:030013000207924F
:040792001207983280
:1006AC00D2A6ED90056C93F580C2A67580FFD2A7FB
:0C06BC00EF90059693F580C2A702075E40
:1005CB00EF75F06484FEEF75F00A8475F00A84AC65
:1005DB00F0EF75F00A84ABF0AD06E4FF1206ACAD9C
:0D05EB00047F011206ACAD037F020206ACD6
:10059D00AC03AB05AD07E4FF1206ACAD037F011252
:1005AD0006ACAD047F021206ACAD297F031206AC7A
:0E05BD00AD2A7F041206ACAD2B7F050206AC02
:10068C00900566E493FFA3E493FDA3E493FBA3E43A
:10069C0093F529A3E493F52AA3E493F52B02059D86
:01079900223D
:01079A00223C
:01079B00223B
:01079C00223A
:1003B70020B41212077220B40312079930B4FD1249
:1003C700077230B4FD20B51212077220B503120769
:1003D7009A30B5FD12077230B5FD20B612120772BA
:1003E70020B60312079B30B6FD12077230B6FD2008
:1003F700B71212077220B70312079C30B7FD120716
:050407007230B7FD2278
:01079D002239
:01079E002238
:01079F002237
:0107A0002236
:0107A1002235
:0107A2002234
:0107A3002233
:0107A4002232
:0107A5002231
:0107A6002230
:0107A700222F
:0107A800222E
:0107A900222D
:0107AA00222C
:0107AB00222B
:0107AC00222A
:10017C00E4F53CF53D75B0FEAFB0F53C8F3D533D1D
:10018C00F0F53C12043E604812042D12043E60400F
:10019C001204457024E53D2482601B24C0601224A7
:1001AC00E0600924F0701212079D800D12079E80EA
:1001BC000812079F80031207A012043E6005120468
:1001CC003080F612077212043E600512043080F67D
:1001DC0075B0FD12043012043E604812042D120456
:1001EC003E60401204457024E53D2483601B24C00E
:1001FC00601224E0600924F070121207A1800D1225
:10020C0007A280081207A380031207A412043E6001
:10021C000512043080F612077212043E60051204B7
:10022C003080F675B0FB12043012043E60481204A4
:10023C002D12043E60401204457024E53D24856077
:10024C001B24C0601224E0600924F070121207A570
:10025C00800D1207A680081207A780031207A812A8
:10026C00043E600512043080F612077212043E60E0
:10027C000512043080F675B0F712043012043E609B
:10028C004812042D12043E60401204457024E53DD2
:10029C002489601B24C0601224E0600924F07012D1
:1002AC001207A9800D1207AA80081207AB8003124F
:1002BC0007AC12043E600512043080F6120772126D
:0902CC00043E600512043080F6C6
:0102D5002206
:06078200C2B512044F2273
:06078800D2B512044F225D
:050016007F01020782DA
:1006E300AC07EC7007ED2480FF120782EC64017005
:0906F30007ED24C0FF120782226A
:100623008B378A3889391206E3AB37AA38A93912CE
:10063300001E60127837E475F00112009E12001E4E
:07064300FF12078880E3228B
:04052A008A348B354F
:10052E00E4FBFA1206E3EBC39536502BC3E5369B7C
:10053E0014FD7F0A1206FCAC34AD35CFCDCFCECC38
:10054E00CE1200497C007D0A120049AA05EA243029
:07055E00FF1207880B80CF9C
:010565002273
:1006C800C2B47F381207827F0E1207827F06120794
:0B06D800827F011207827F81020782EF
:1004ED0012077B7FFA7E00120714758901D28CC228
:1004FD00907FF47E0112066CC29112066CC29212AC
:10050D00066CC29312066CC29412066CC29512064A
:0D051D006CC29612066CC29712066C80D25A
:030000000202D623
:0C02D600787FE4F6D8FD75813E02031D20
:10001E00BB010689828A83E0225002E722BBFE02E0
:09002E00E32289828A83E4932213
:10003700EF8DF0A4A8F0CF8CF0A428CE8DF0A42EDD
:02004700FE2297
:10004900BC000BBE0029EF8DF084FFADF022E4CC9B
:10005900F875F008EF2FFFEE33FEEC33FCEE9DEC64
:10006900984005FCEE9DFE0FD5F0E9E4CEFD22EDAA
:10007900F8F5F0EE8420D21CFEADF075F008EF2FF4
:10008900FFED33FD4007985006D5F0F222C398FDE5
:050099000FD5F0EA2282
:1004A900C2D5E830E70FB2D5E4C39BFBE49AFAE47E
:1004B90099F9E498F8EC30E717B2D51204DF120085
:1004C900EAE4C39BFBE49AFAE499F9E498F8800317
:1004D9001200EA30D50DE4C39FFFE49EFEE49DFDC2
:0404E900E49CFC2271
:10009E00FAE6FB0808E6F925F0F618E6CA3AF62263
:1002E2000204EDE493A3F8E493A34003F68001F241
:1002F20008DFF48029E493A3F85407240CC8C3331D
:10030200C4540F4420C8834004F456800146F6DFEB
:10031200E4800B01020408102040809005F8E47E7E
:10032200019360BCA3FF543F30E509541FFEE493E0
:10033200A360010ECF54C025E060A840B8E493A3A7
:10034200FAE493A3F8E493A3C8C582C8CAC583CAD2
:10035200F0A3C8C582C8CAC583CADFE9DEE780BE8A
:0106220000D7
:1000AE0075F008758200EF2FFFEE33FECD33CDCC09
:1000BE0033CCC58233C5829BED9AEC99E58298408C
:1000CE000CF582EE9BFEED9AFDEC99FC0FD5F0D669
:1000DE00E4CEFBE4CDFAE4CCF9A88222B800C1B993
:1000EE000059BA002DEC8BF084CFCECDFCE5F0CBD1
:1000FE00F97818EF2FFFEE33FEED33FDEC33FCEB0A
:10010E0033FB10D703994004EB99FB0FD8E5E4F9C4
:10011E00FA227818EF2FFFEE33FEED33FDEC33FCB1
:10012E00C933C910D7059BE99A4007EC9BFCE99AA5
:10013E00F90FD8E0E4C9FAE4CCFB2275F010EF2FEA
:10014E00FFEE33FEED33FDCC33CCC833C810D707EA
:10015E009BEC9AE899400AED9BFDEC9AFCE899F825
:0E016E000FD5F0DAE4CDFBE4CCFAE4C8F922B8
:00000001FF
