:10056900110E151518293F065B4F666D7D077F6FC4
:10057900777C395E79713D76110E7A3855543F731F
:1005890067506D783E3E6A766E5B7B745C1C6200D8
:07059900FEFDFBF7EFDFC0E0
:1005FB000A104D656E20597568616E000C1A313802
:10060B0030353031303031393600020A02C9020C34
:0A061B00000002080000020E0000BB
:10036200AE2CAF2DAB07AA06E4C39BFFE49AFE7442
:10037200019400FDE49400FCE4FB7A01F9F8020424
:10038200B0120775AFB0753C008F3D533DF0753C20
:100392000022E53D64F0453C221207457590FF229C
:1003A200AFB0753C008F3DE53C228F8012076BD2C7
:0703B200B412076BC2B42274
:10066F00E4FDFCC3ED9FEC9E5015E4FBFA0BBB00C1
:0F067F00010AEB64714A70F50DBD00010C80E4B7
:01068E002249
:09076100007F027EC7DEFEDFFC12
:01076A00226C
:09076B00007F047E92DEFEDFFC3B
:010774002262
:080775007F097EF4DEFEDFFCCB
:01077D002259
:0D074500007F047E817D77DDFEDEFCDFFAA3
:010752002284
:0D075300007F087E017DF3DDFEDEFCDFFA95
:010760002276
:0406FF008F3EA9057C
:100703007F017E00AD0119ED6009AD3E7C00120052
:030713003780F13B
:0107160022C0
:07077E00C2A6C2A7D2AF2200
:100717008E308F31D2A91203668F8CAE30AF311273
:070727000366AF038F8A2275
:10064D00050DE50D7002050CC39405E50C940040F5
:10065D0005E4F50CF50DE50D450C7003D28022C2B5
:02066D008022E9
:03000B0002046389
:10046300C0E0C0F0C083C082C0D075D000C000C05F
:0D04730001C002C003C004C005C006C007E0
:10048000752C00752DC81203628F8C120362AF03A6
:050490008F8A12064DE9
:10049500D007D006D005D004D003D002D001D000BB
:0B04A500D0D0D082D083D0F0D0E03265
:10072E008E3A8F3BD2AB1203668F8DAE3AAF3B1231
:07073E000366AF038F8B225D
:01079900223D
:03001B000203B924
:1003B900C0E0C0F0C083C082C0D075D000C000C00A
:0D03C90001C002C003C004C005C006C0078B
:1003D600752EC3752F50AE2EAF2F1203668F8DAEBE
:0D03E6002EAF2F120366AF038F8B12079905
:1003F300D007D006D005D004D003D002D001D0005E
:0B040300D0D0D082D083D0F0D0E03207
:05000600D2A8C288220F
:01079A00223C
:0300030002079160
:0407910012079A327F
:05000E00D2AAC28A2203
:01079B00223B
:030013000207954C
:0407950012079B327A
:1006AF00D2A6ED90056F93F580C2A67580FFD2A7F5
:0C06BF00EF90059993F580C2A702076137
:1005CE00EF75F06484FEEF75F00A8475F00A84AC62
:1005DE00F0EF75F00A84ABF0AD06E4FF1206AFAD96
:0D05EE00047F011206AFAD037F020206AFCD
:1005A000AC03AB05AD07E4FF1206AFAD037F01124C
:1005B00006AFAD047F021206AFAD297F031206AF6E
:0E05C000AD2A7F041206AFAD2B7F050206AFF9
:10068F00900569E493FFA3E493FDA3E493FBA3E434
:10069F0093F529A3E493F52AA3E493F52B0205A080
:01079C00223A
:01079D002239
:01079E002238
:01079F002237
:10040E0020B41212077520B40312079C30B4FD12EB
:10041E00077530B4FD20B51212077520B50312070B
:10042E009D30B5FD12077530B5FD20B61212077559
:10043E0020B60312079E30B6FD12077530B6FD20AA
:10044E00B71212077520B70312079F30B7FD1207B8
:05045E007530B7FD221E
:0107A0002236
:0107A1002235
:0107A2002234
:0107A3002233
:0107A4002232
:0107A5002231
:0107A6002230
:0107A700222F
:0107A800222E
:0107A900222D
:0107AA00222C
:0107AB00222B
:0107AC00222A
:0107AD002229
:0107AE002228
:0107AF002227
:10017C00E4F53CF53D75B0FEAFB0F53C8F3D533D1D
:10018C00F0F53C1203946048120383120394604010
:10019C001203A27024E53D2482601B24C06012244B
:1001AC00E0600924F070121207A0800D1207A180E4
:1001BC00081207A280031207A3120394600512030E
:1001CC008680F6120775120394600512038680F67A
:1001DC0075B0FD1203861203946048120383120358
:1001EC009460401203A27024E53D2483601B24C05C
:1001FC00601224E0600924F070121207A4800D1222
:10020C0007A580081207A680031207A712039460A3
:10021C000512038680F6120775120394600512030B
:10022C008680F675B0FB12038612039460481203A5
:10023C008312039460401203A27024E53D24856070
:10024C001B24C0601224E0600924F070121207A86D
:10025C00800D1207A980081207AA80031207AB129F
:10026C000394600512038680F612077512039460DE
:10027C000512038680F675B0F7120386120394609C
:10028C004812038312039460401203A27024E53DCC
:10029C002489601B24C0601224E0600924F07012D1
:1002AC001207AC800D1207AD80081207AE80031246
:1002BC0007AF120394600512038680F612077512BD
:0902CC000394600512038680F61C
:0102D5002206
:06078500C2B51203AC2214
:06078B00D2B51203AC22FE
:050016007F01020785D7
:1006E600AC07EC7007ED2480FF120785EC640170FF
:0906F60007ED24C0FF1207852264
:100626008B378A3889391206E6AB37AA38A93912C8
:10063600001E60127837E475F00112009E12001E4B
:07064600FF12078B80E32285
:0404F4008A348B3586
:1004F800E4FBFA1206E6EBC39536502BC3E5369BB0
:1005080014FD7F0A1206FFAC34AD35CFCDCFCECC6B
:10051800CE1200497C007D0A120049AA05EA24305F
:07052800FF12078B0B80CFCF
:01052F0022A9
:1006CB00C2B47F381207857F0E1207857F0612078B
:0B06DB00857F011207857F81020785E3
:1005300012077E7FC87E00120717758901D28CC210
:100540009012039BC29112039BC29212039BC2930F
:1005500012039BC29412039BC29512039BC2961274
:09056000039BC29712039B80D695
:030000000202D623
:0C02D600787FE4F6D8FD75813E02031D20
:10001E00BB010689828A83E0225002E722BBFE02E0
:09002E00E32289828A83E4932213
:10003700EF8DF0A4A8F0CF8CF0A428CE8DF0A42EDD
:02004700FE2297
:10004900BC000BBE0029EF8DF084FFADF022E4CC9B
:10005900F875F008EF2FFFEE33FEEC33FCEE9DEC64
:10006900984005FCEE9DFE0FD5F0E9E4CEFD22EDAA
:10007900F8F5F0EE8420D21CFEADF075F008EF2FF4
:10008900FFED33FD4007985006D5F0F222C398FDE5
:050099000FD5F0EA2282
:1004B000C2D5E830E70FB2D5E4C39BFBE49AFAE477
:1004C00099F9E498F8EC30E717B2D51204E6120077
:1004D000EAE4C39BFBE49AFAE499F9E498F8800310
:1004E0001200EA30D50DE4C39FFFE49EFEE49DFDBB
:0404F000E49CFC226A
:10009E00FAE6FB0808E6F925F0F618E6CA3AF62263
:1002E200020530E493A3F8E493A34003F68001F2FD
:1002F20008DFF48029E493A3F85407240CC8C3331D
:10030200C4540F4420C8834004F456800146F6DFEB
:10031200E4800B01020408102040809005FBE47E7B
:10032200019360BCA3FF543F30E509541FFEE493E0
:10033200A360010ECF54C025E060A840B8E493A3A7
:10034200FAE493A3F8E493A3C8C582C8CAC583CAD2
:10035200F0A3C8C582C8CAC583CADFE9DEE780BE8A
:0106250000D4
:1000AE0075F008758200EF2FFFEE33FECD33CDCC09
:1000BE0033CCC58233C5829BED9AEC99E58298408C
:1000CE000CF582EE9BFEED9AFDEC99FC0FD5F0D669
:1000DE00E4CEFBE4CDFAE4CCF9A88222B800C1B993
:1000EE000059BA002DEC8BF084CFCECDFCE5F0CBD1
:1000FE00F97818EF2FFFEE33FEED33FDEC33FCEB0A
:10010E0033FB10D703994004EB99FB0FD8E5E4F9C4
:10011E00FA227818EF2FFFEE33FEED33FDEC33FCB1
:10012E00C933C910D7059BE99A4007EC9BFCE99AA5
:10013E00F90FD8E0E4C9FAE4CCFB2275F010EF2FEA
:10014E00FFEE33FEED33FDCC33CCC833C810D707EA
:10015E009BEC9AE899400AED9BFDEC9AFCE899F825
:0E016E000FD5F0DAE4CDFBE4CCFAE4C8F922B8
:00000001FF
