:10054B00110E151518293F065B4F666D7D077F6FE2
:10055B00777C395E79713D76110E7A3855543F733D
:10056B0067506D783E3E6A766E5B7B745C1C6200F6
:07057B00FEFDFBF7EFDFC0FE
:10060900020800290A0F4D656E20597568616E0050
:100619000C19313830353031303031393600020D6E
:0906290002C9010C30020A0000B4
:10037600AE2BAF2CAB07AA06E4C39BFFE49AFE7430
:10038600019400FDE49400FCE4FB7A01F9F8020410
:10039600CB12082DAFB0752F008F305330F0752F6C
:1003A6000022E509250CF50C22E53064F0452F22E4
:1003B600AFB0752F008F30E52F22750A00750B013F
:0E03C600228F801207C9D2B41207C9C2B42216
:10065A00E4FDFCC3ED9FEC9E5015E4FBFA0BBB00D6
:0F066A00010AEB64714A70F50DBD00010C80E4CC
:01067900225E
:0907BF00007F027EC7DEFEDFFCB4
:0107C800220E
:0907C900007F047E92DEFEDFFCDD
:0107D2002204
:08082D007F097EF4DEFEDFFC12
:0108350022A0
:0D074F00007F047E817D77DDFEDEFCDFFA99
:01075C00227A
:0D075D00007F087E017DF3DDFEDEFCDFFA8B
:01076A00226C
:040709008F3DA90572
:10070D007F017E00AD0119ED6009AD3D7C00120148
:03071D00A580F1C3
:0107200022B6
:07083F00C2A6C2A7D2AF223E
:100721008E398F3AD2A912037A8F8CAE39AF3A1231
:07073100037AAF038F8A2257
:0100220022BB
:03000B0002047E6E
:10047E00C0E0C0F0C083C082C0D075D000C000C044
:0D048E0001C002C003C004C005C006C007C5
:10049B00752BC3752C501203768F8C120376AF031A
:0504AB008F8A120022FF
:1004B000D007D006D005D004D003D002D001D000A0
:0B04C000D0D0D082D083D0F0D0E0324A
:100738008E3B8F3CD2AB12037A8F8DAE3BAF3C120F
:07074800037AAF038F8B223F
:01085A00227B
:03001B000203D409
:1003D400C0E0C0F0C083C082C0D075D000C000C0EF
:0D03E40001C002C003C004C005C006C00770
:1003F100752DC3752E50AE2DAF2E12037A8F8DAE93
:0D0401002DAF2E12037AAF038F8B12085A15
:10040E00D007D006D005D004D003D002D001D00042
:0B041E00D0D0D082D083D0F0D0E032EC
:05000600D2A8C288220F
:01085B00227A
:0300030002001EDA
:04001E0012085B3237
:05000E00D2AAC28A2203
:01085C002279
:030013000208528E
:0408520012085C32FA
:10069A0053877F759850538EBF538EFE53890F43ED
:0F06AA008920758BFD758DFDC2ABD28EC2AC223F
:01085D002278
:030023000208567A
:0408560012085D32F5
:1006B900D2A6ED90055193F580C2A67580FFD2A709
:0C06C900EF90057B93F580C2A70207BFED
:1005B000EF75F06484FEEF75F00A8475F00A84AC80
:1005C000F0EF75F00A84ABF0AD06E4FF1206B9ADAA
:0D05D000047F011206B9AD037F020206B9D7
:10058200AC03AB05AD07E4FF1206B9AD037F011260
:1005920006B9AD047F021206B9AD287F031206B96F
:0E05A200AD297F041206B9AD2A7F050206B905
:10067A0090054BE493FFA3E493FDA3E493FBA3E467
:10068A0093F528A3E493F529A3E493F52A020582B6
:01085E002277
:01085F002276
:010860002275
:010861002274
:1004290020B41212082D20B40312085E30B4FD1254
:10043900082D30B4FD20B51212082D20B50312087D
:100449005F30B5FD12082D30B5FD20B61212082D0A
:1004590020B60312086030B6FD12082D30B6FD2013
:10046900B71212082D20B70312086130B7FD120820
:050479002D30B7FD224B
:09083600E4F508F5091203A822FB
:0A07D3007508007509011203A82241
:0A07DD007508007509021203A82236
:0A07E7007508007509031203A8222B
:0A07F1007508007509041203A82220
:0A07FB007508007509051203A82215
:0A0805007508007509061203A82209
:0A080F007508007509071203A822FE
:0A0819007508007509081203A822F3
:0A0823007508007509091203A822E8
:0E076B0075080075090A1203A82407F50C2270
:0E07790075080075090B1203A82407F50C2261
:0E07870075080075090C1203A82407F50C2252
:0E07950075080075090D1203A82407F50C2243
:0E07A30075080075090E1203A82407F50C2234
:0E07B10075080075090F1203A82407F50C2225
:10002600E4F52FF53075B0FEAFB0F52F8F305330B5
:10003600F0F52F1203AF604B1203971203AF604324
:100046001203B67024E5302482601B24C06012249B
:10005600E0600924F07012120836800D1207D38072
:10006600081207DD80031207E71203AF60051203CB
:100076009A80F612082D1203AF600512039A80F6D5
:100086001203C075B0FD12039A1203AF604B120340
:10009600971203AF60431203B67024E530248360E1
:1000A6001B24C0601224E0600924F070121207F1CC
:1000B600800D1207FB8008120805800312080F1234
:1000C60003AF600512039A80F612082D1203AF6083
:1000D6000512039A80F61203C075B0FB12039A123A
:1000E60003AF604B1203971203AF60431203B6705F
:1000F60024E5302485601B24C0601224E0600924B6
:10010600F07012120819800D120823800812076B6E
:1001160080031207791203AF600512039A80F61264
:10012600082D1203AF600512039A80F61203C075FC
:10013600B0F712039A1203AF604B1203971203AF84
:1001460060431203B67024E5302489601B24C06026
:100156001224E0600924F07012120787800D12073E
:100166009580081207A380031207B11203AF60053A
:1001760012039A80F612082D1203AF600512039A35
:0501860080F61203C029
:01018B002251
:06084600C2B51203C72237
:06084C00D2B51203C72221
:050016007F0102084615
:1006F000AC07EC7007ED2480FF120846EC64017033
:0907000007ED24C0FF1208462297
:100633008B368A3789381206F0AB36AA37A93812B7
:10064300018C60127836E475F00112020C12018CF1
:07065300FF12084C80E322B6
:04050F008A338B346C
:10051300E4FBFA1206F0EBC39535502BC3E5359B8C
:1005230014FD7F0A120709AC33AD34CFCDCFCECC47
:10053300CE1201B77C007D0A1201B7AA05EA243066
:07054300FF12084C0B80CFF2
:01054A00228E
:1006D500C2B47F381208467F0E1208467F061208FC
:0B06E500467F011208467F8102084694
:1005DD0012083F12069A120026AD097F051206B9C0
:1005ED0075B0FFE50B6401450A70EBF50AF50B8557
:0C05FD000C993099FDC299750C3080DA21
:030000000202EA0F
:0C02EA00787FE4F6D8FD75813D020331F9
:10018C00BB010689828A83E0225002E722BBFE0271
:09019C00E32289828A83E49322A4
:1001A500EF8DF0A4A8F0CF8CF0A428CE8DF0A42E6E
:0201B500FE2228
:1001B700BC000BBE0029EF8DF084FFADF022E4CC2C
:1001C700F875F008EF2FFFEE33FEEC33FCEE9DECF5
:1001D700984005FCEE9DFE0FD5F0E9E4CEFD22ED3B
:1001E700F8F5F0EE8420D21CFEADF075F008EF2F85
:1001F700FFED33FD4007985006D5F0F222C398FD76
:050207000FD5F0EA2212
:1004CB00C2D5E830E70FB2D5E4C39BFBE49AFAE45C
:1004DB0099F9E498F8EC30E717B2D512050112023E
:1004EB0058E4C39BFBE49AFAE499F9E498F8800387
:1004FB0012025830D50DE4C39FFFE49EFEE49DFD30
:04050B00E49CFC224E
:10020C00FAE6FB0808E6F925F0F618E6CA3AF622F3
:1002F6000205DDE493A3F8E493A34003F68001F23C
:1003060008DFF48029E493A3F85407240CC8C33308
:10031600C4540F4420C8834004F456800146F6DFD7
:10032600E4800B0102040810204080900609E47E58
:10033600019360BCA3FF543F30E509541FFEE493CC
:10034600A360010ECF54C025E060A840B8E493A393
:10035600FAE493A3F8E493A3C8C582C8CAC583CABE
:10036600F0A3C8C582C8CAC583CADFE9DEE780BE76
:0106320000C7
:10021C0075F008758200EF2FFFEE33FECD33CDCC99
:10022C0033CCC58233C5829BED9AEC99E58298401C
:10023C000CF582EE9BFEED9AFDEC99FC0FD5F0D6F9
:10024C00E4CEFBE4CDFAE4CCF9A88222B800C1B923
:10025C000059BA002DEC8BF084CFCECDFCE5F0CB61
:10026C00F97818EF2FFFEE33FEED33FDEC33FCEB9A
:10027C0033FB10D703994004EB99FB0FD8E5E4F955
:10028C00FA227818EF2FFFEE33FEED33FDEC33FC42
:10029C00C933C910D7059BE99A4007EC9BFCE99A36
:1002AC00F90FD8E0E4C9FAE4CCFB2275F010EF2F7B
:1002BC00FFEE33FEED33FDCC33CCC833C810D7077B
:1002CC009BEC9AE899400AED9BFDEC9AFCE899F8B6
:0E02DC000FD5F0DAE4CDFBE4CCFAE4C8F92249
:00000001FF
