:03000000020003F8
:0C000300787FE4F6D8FD75810902004A00
:100175003F065B4F666D7D077F6F777C395E7971D2
:0701850000FEFDFBF7EFDFB8
:03018C0001090066
:10015500E4FDFCC3ED9FEC9E5015E4FBFA0BBB00E0
:0F016500010AEB64714A70F50DBD00010C80E4D6
:010174002268
:10008F00EF75F06484FEEF75F00A8475F00A8485CD
:10009F00F008EF75F00A84A9F0D2A6AF06EF900131
:1000AF007593F580C2A67580FFD2A7900186E49361
:1000BF00F580C2A77F017E00120155D2A6E50890F8
:1000CF00017593F580C2A67580FFD2A7900187E4D2
:1000DF0093F580C2A77F01120155D2A6AF01EF9011
:1000EF00017593F580C2A67580FFD2A7900188E4B1
:0A00FF0093F580C2A77F01020155AE
:1001090020B4257F057E0012015520B40CC290054C
:1001190009E509640A7002F50930B4FD7F057E001E
:0B01290012015520B40480FBD290228C
:10013400D2A7900186E493F580C2A775B0FFD29050
:10014400120109D2A6E50990017593F580C2A68033
:01015400EFBB
:10000F00020134E493A3F8E493A34003F68001F2D2
:10001F0008DFF48029E493A3F85407240CC8C333F2
:10002F00C4540F4420C8834004F456800146F6DFC1
:10003F00E4800B010204081020408090018CE47EC4
:10004F00019360BCA3FF543F30E509541FFEE493B6
:10005F00A360010ECF54C025E060A840B8E493A37D
:10006F00FAE493A3F8E493A3C8C582C8CAC583CAA8
:10007F00F0A3C8C582C8CAC583CADFE9DEE780BE60
:01018F00006F
:00000001FF
