:1000000002060CC2A7C2A6C2A58F807F027E001284
:0A0010000A5CD2A5120A5CC2A52208
:10001B00020A0C30B2030203037F0F1200037D03AD
:10002B00E4FF120A3C120A5830B2FD120A5820B5EE
:10003B0027D3E509940074809480400215097D0252
:10004B00E4FF120A3CAF09120AD57D03E4FF120A42
:10005B003C7F2C7E01120A5C20B627C3E509946312
:10006B0074809480500205097D02E4FF120A3CAFB4
:10007B0009120AD57D03E4FF120A3C7F2C7E011284
:10008B000A5C20B2A97D06E4FF120A3C120A583022
:10009B00B2FD120A5820B527D3E50A940174809457
:1000AB00804002150A7D05E4FF120A3CAF0A120AD2
:1000BB00D57D06E4FF120A3C7F2C7E01120A5C20E0
:1000CB00B627C3E50A940C748094805002050A7D10
:1000DB0005E4FF120A3CAF0A120AD57D06E4FF12B3
:1000EB000A3C7F2C7E01120A5C20B2A97D09E4FF39
:1000FB00120A3C120A5830B2FD120A5820B527D307
:10010B00E50B9401748094804002150B7D08E4FF8D
:10011B00120A3CAF0B120AD57D09E4FF120A3C7F91
:10012B002C7E01120A5C20B627C3E50B941F74804A
:10013B0094805002050B7D08E4FF120A3CAF0B12B2
:10014B000AD57D09E4FF120A3C7F2C7E01120A5C62
:10015B0020B2A97D0FE4FF120A3C120A5830B2FDFF
:10016B00120A5820B527D3E50C9401748094804073
:10017B0002150C7D0CE4FF120A3CAF0C1207FE7D3E
:10018B000FE4FF120A3C7F2C7E01120A5C20B6277B
:10019B00C3E50C9407748094805002050C7D0CE42D
:1001AB00FF120A3CAF0C1207FE7D0FE4FF120A3C54
:1001BB007F2C7E01120A5C20B2A97D057F01120AF9
:1001CB003C120A5830B2FD120A5820B523D3E50D64
:1001DB009400748094804002150D120A38AF0D12F2
:1001EB000AD57D057F01120A3C7F2C7E01120A5C29
:1001FB0020B623C3E50D9417748094805002050D2F
:10020B00120A38AF0D120AD57D057F01120A3C7F09
:10021B002C7E01120A5C20B2B17D087F01120A3CD0
:10022B00120A5830B2FD120A5820B527D3E50E94A6
:10023B0000748094804002150E7D077F01120A3CEA
:10024B00AF0E120AD57D087F01120A3C7F2C7E016E
:10025B00120A5C20B627C3E50E943B748094805041
:10026B0002050E7D077F01120A3CAF0E120AD57DE7
:10027B00087F01120A3C7F2C7E01120A5C20B2A976
:10028B007D0B7F01120A3C120A5830B2FD120A583C
:10029B0020B527D3E50F9400748094804002150F8E
:1002AB007D0A7F01120A3CAF0F120AD57D0B7F012D
:1002BB00120A3C7F2C7E01120A5C20B627C3E50F85
:1002CB00943B748094805002050F7D0A7F01120AC3
:1002DB003CAF0F120AD57D0B7F01120A3C7F2C7E9F
:1002EB0001120A5C20B2A97F0C12000312069812AD
:1002FB000A5830B2FD120A582230B3030204A5E4A7
:10030B00FDFF120A3C7BFF7A0579C01209E7E4FD79
:10031B007F01120A3C7BFF7A0579D11209E77D0335
:10032B007F01120A3CAF15120AD57D067F01120A16
:10033B003CAF12120AD57D0A7F01120A3CE5087BFD
:10034B00FF70067A0579E280047A0579E61209E7EF
:10035B00120A387F0F120003120A5830B3FD120A2B
:10036B005820B51ED3E51594007480948040021577
:10037B00157D037F01120A3C120A337F2C7E01127A
:10038B000A5C20B61EC3E515941774809480500246
:10039B0005157D037F01120A3C120A337F2C7E0167
:1003AB00120A5C20B3BB7D077F01120A3C120A586C
:1003BB0030B3FD120A5820B527D3E5129400748090
:1003CB009480400215127D067F01120A3CAF121277
:1003DB000AD57D077F01120A3C7F2C7E01120A5C35
:1003EB0020B627C3E512943B74809480500205120B
:1003FB007D067F01120A3CAF12120AD57D077F01E1
:10040B00120A3C7F2C7E01120A5C20B3A97D0C7F63
:10041B0001120A3C120A5830B3FD120A5820B526B5
:10042B00E50864017002F5087D0A7F01120A3C7B26
:10043B00FF7A0579E21209E77D0C7F01120A3C7FF6
:10044B002C7E01120A5C20B625E5087003750801A5
:10045B007D0A7F01120A3C7BFF7A0579E61209E7D8
:10046B007D0C7F01120A3C7F2C7E01120A5C20B3AB
:10047B00AC7F0C120003120A9B120A5830B3FD1208
:10048B000A587F007E20120AEFAD15120ABAAD1280
:10049B000F120ABAAD080F120ABA2230B4030205C2
:1004AB007AE4FDFF120A3C7BFF7A0579EA1209E731
:1004BB00E4FD7F01120A3C1209E1120A5830B4FD27
:1004CB00120A5820B40302056520B512208E04D2FF
:1004DB008E8002C28E120A5830B5FD120A5820B611
:1004EB0019E4F514F510F511FD7F01120A3C120900
:1004FB00E1120A5830B6FD120A58308EC67D027FC3
:10050B0001120A3CAE10AF117C0E7D101207A9121E
:10051B000AD57D057F01120A3CAE10AF117C0E7D12
:10052B00101207A97E007F3CCFCDCFCECCCE1207C9
:10053B00A9120AD57D087F01120A3CAE10AF117CBF
:10054B00007D3C1207A9AF05120AD57D0B7F011266
:10055B000A3CAF14120AD50204CEC28EE4F514F590
:10056B0010F511120A9B120A5830B4FD120A5822C8
:10057B00323020202D20202D202020202020202034
:10058B00002020202020203A20203A20202020204C
:10059B0020002053756E00204D6F6E0054756573EF
:1005AB00002057656400546875720020467269001C
:1005BB002053617400416C61726D20436C6F636BEF
:1005CB0020536574200020202020203A202020205A
:1005DB00202020202020004F464600204F4E002098
:1005EB00202053746F702D57617463682020200096
:1005FB00202030303A30303A30302030302020203C
:10060B0000787FE4F6D8FD758118020653020715B2
:10061B00E493A3F8E493A34003F68001F208DFF41C
:10062B008029E493A3F85407240CC8C333C4540F94
:10063B004420C8834004F456800146F6DFE4800B67
:10064B000102040810204080900B33E47E0193607C
:10065B00BCA3FF543F30E509541FFEE493A3600194
:10066B000ECF54C025E060A840B8E493A3FAE493FE
:10067B00A3F8E493A3C8C582C8CAC583CAF0A3C8AC
:10068B00C582C8CAC583CADFE9DEE780BEE4FFEFD7
:10069B00C3940774809480502174092FF8E6FE757B
:1006AB00F00A84C454F0FDEE75F00A84AEF0ED2E22
:1006BB00FC74092FF8A6040F80D5E4FD7F8E120978
:1006CB005A7D807F8012095AAD097F8C12095AAD71
:1006DB000A7F8812095AAD0B7F8612095AAD0C7F1F
:1006EB008A12095AAD0D7F8412095AAD0E7F821200
:1006FB00095AAD0F7F8012095AE50F547FFD7F8099
:10070B0012095A7D807F8E02095A120B1F120B574A
:10071B00120A9B120B4F7F811208BFC3EF94807498
:10072B0080948040031206987F007E20120A7C8FF3
:10073B0015D3EF941774809480400375150C7F01CB
:10074B007E20120A7C8F12D3EF943B7480948040EE
:10075B000375121E7F027E20120A7C8F08D3EF9442
:10076B0001748094804003E4F50812086212090DAD
:10077B001209A512001E1203041204A67F647E0048
:10078B00120A5C80E5BB010689828A83E022500253
:10079B00E722BBFE02E32289828A83E49322BC0018
:1007AB000BBE0029EF8DF084FFADF022E4CCF87581
:1007BB00F008EF2FFFEE33FEEC33FCEE9DEC984090
:1007CB0005FCEE9DFE0FD5F0E9E4CEFD22EDF8F52C
:1007DB00F0EE8420D21CFEADF075F008EF2FFFED8C
:1007EB0033FD4007985006D5F0F222C398FD0FD584
:1007FB00F0EA22EF14B40700505C90081375F00375
:10080B00A4C58325F0C583730208280208300208AB
:10081B00380208400208480208500208587BFF7A49
:10082B0005799D802E7BFF7A0579A280267BFF7A46
:10083B000579A7801E7BFF7A0579AC80167BFF7A42
:10084B000579B1800E7BFF7A0579B680067BFF7A3E
:10085B000579BB1209E7227F8D1208BF8F097F89AB
:10086B001208BF8F0A7F871208BF8F0B7F8B12086E
:10087B00BF8F0C7F851208BF8F0D7F831208BF8F30
:10088B000E7F811208BFEF547FF50FE4FFEFC39487
:10089B000774809480501C74092FF8E6FEC4540F23
:1008AB0075F00AA4FDEE540F2DFE74092FF8A60661
:1008BB000F80DA22D293E4FDEDC394087480948008
:1008CB005017EF30E004D2928002C292D29100C254
:1008DB009100EFC313FF0D80DFE4FDEDC3940874AB
:1008EB008094805018EEC313FE309205430680802F
:1008FB000353067FD29100C291000D80DEC293AFED
:10090B0006227D02E4FF120A3CAF09120AD57D05CF
:10091B00E4FF120A3CAF0A120AD57D08E4FF120A63
:10092B003CAF0B120A35AF0D120AD57D077F0112B2
:10093B000A3CAF0E120AD57D0A7F01120A3CAF0F9B
:10094B00120AD57D0CE4FF120A3CAF0C0207FED253
:10095B0093E4FEEEC39408748094805017EF30E05C
:10096B0004D2928002C292D29100C29100EFC313C3
:10097B00FF0E80DFE4FEEEC3940874809480501762
:10098B00ED30E004D2928002C292D29100C291006B
:10099B00EDC313FD0E80DFC29322E50864017011D5
:1009AB00E515B50D0CE512B50E07E50F70037513C4
:1009BB0001E50F643B7002F51330B50320B603E479
:1009CB00F513E5136401700DC2A07F64FE120A5C7F
:1009DB00D2A0120A5C227BFF7A0579FB8B168A1751
:1009EB008918AB16AA17A91812079060130518E5FA
:1009FB00187002051714F9120790FF120B0880E20A
:100A0B0022C0E0C0D0758DD8758BF00514C3E514EA
:100A1B00946474809480400B7514000511E511707B
:100A2B00020510D0D0D0E032AF15120AD57D047F6D
:100A3B00018F16A905EF7007E92480FF120003E56B
:100A4B001664017007E924C0FF120003227F0A7E9F
:100A5B0000E4FDFCC3ED9FEC9E5015E4FBFA0BBBD1
:100A6B0000010AEB64704A70F50DBD00010C80E4C7
:100A7B0022AD07AC06E4F5E275E78375E5018CE37F
:100A8B00EDF5E475E64675E6B900120B47AFE222C9
:100A9B00E4FDFF120A3C7BFF7A05797B1209E7E440
:100AAB00FD7F01120A3C7BFF7A05798C0209E7ABCB
:100ABB0007AA0675E78375E5028AE3EBF5E48DE299
:100ACB0075E64675E6B900020B47A907E975F00A0A
:100ADB00842430FF120B08E975F00A84E5F024300A
:100AEB00FF020B08AD07AC0675E78375E5038CE3D6
:100AFB00EDF5E475E64675E6B900020B47D2A7C2E1
:100B0B00A6C2A58F807F027E00120A5CD2A5120AB4
:100B1B005CC2A5227F381200037F0C1200037F06F4
:100B2B001200037F010200030709130A0406121EB9
:100B3B00280113000114000210000000E4F5E7F592
:100B4B00E3F5E422758910D2ABD2AF22C293C291E6
:030B5B00C2922221
:00000001FF
