:100664003F065B4F666D7D077F6F777C395E7971DE
:0706740000FEFDFBF7EFDFC4
:1005E2000A0A4D656E20597568616E000C14313827
:0E05F20030353031303031393600020802C960
:10046100AE32AF33AB07AA06E4C39BFFE49AFE7436
:10047100019400FDE49400FCE4FB7A01F9F8020424
:10048100B112069BAFB07536008F375337F0753612
:100491000022E53764F0453622AFB07536008F375C
:1004A100E536228F80120691D2B4120691C2B4228F
:1005C200E4FDFCC3ED9FEC9E5015E4FBFA0BBB006F
:0F05D200010AEB64714A70F50DBD00010C80E465
:0105E10022F7
:09000E00007F027EC7DEFEDFFC6C
:0100170022C6
:09069100007F047E92DEFEDFFC16
:01069A00223D
:08069B007F097EF4DEFEDFFCA6
:0106A3002234
:040635008F38A9054C
:100639007F017E00AD0119ED6009AD387C00120023
:030649003780F106
:01064C00228B
:10067B008E328F33D2A97589011204618F8C1204CB
:06068B0061AF038F8A221B
:0100090022D4
:03000B000203628B
:10036200C0E0C0F0C083C082C0D075D000C000C061
:0D03720001C002C003C004C005C006C007E2
:10037F00752BC3752C50AE2BAF2C1204658F8CAE22
:0D038F002BAF2C120465AF038F8A120009FA
:10039C00D007D006D005D004D003D002D001D000B5
:0B03AC00D0D0D082D083D0F0D0E0325F
:10064D008E348F35D2AB1204658F8DAE34AF35122B
:07065D000465AF038F8B223F
:01000A0022D3
:03001B000203B726
:1003B700C0E0C0F0C083C082C0D075D000C000C00C
:0D03C70001C002C003C004C005C006C0078D
:1003D400752DC3752E50AE2DAF2E1204658F8DAEC4
:0D03E4002DAF2E120465AF038F8B12000A9F
:1003F100D007D006D005D004D003D002D001D00060
:0B040100D0D0D082D083D0F0D0E03209
:0506B000C2A6C2A72252
:06057F00120585AF040D1A
:10058500D2A6EF90066493F580C2A67580FFD2A728
:0C059500ED90067593F580C2A702000EE1
:02053100AE0713
:10053300EE75F06484FDEE75F00A8475F00A84AC00
:10054300F0EE75F00A84ABF0AF05E4FD12057FAF62
:05055300030D02058507
:1005A100AC03AB05E4FD120585AF030D12057F0D0C
:1005B100AF231205850DAF241205850DAF25020568
:0105C10085B4
:0100180022C5
:0100190022C4
:01001A0022C3
:0106BA00221D
:10040C0020B41212069B20B40312001830B4FD1253
:10041C00069B30B4FD20B51212069B20B5031200CA
:10042C001930B5FD12069B30B5FD20B61212069B95
:10043C0020B60312001A30B6FD12069B30B6FD2012
:10044C00B71212069B20B7031206BA30B7FD12067C
:05045C009B30B7FD22FA
:0106BB00221C
:0106BC00221B
:0106BD00221A
:0106BE002219
:0106BF002218
:0106C0002217
:0106C1002216
:0106C2002215
:0106C3002214
:0106C4002213
:0106C5002212
:0106C6002211
:0106C7002210
:0106C800220F
:0106C900220E
:0106CA00220D
:10017C00E4F536F53775B0FEAFB0F5368F3753373B
:10018C00F0F5361204936048120482120493604016
:10019C0012049A7024E5372482601B24C060122458
:1001AC00E0600924F070121206BB800D1206BC80B0
:1001BC00081206BD80031206BE12049360051204D9
:1001CC008580F612069B120493600512048580F656
:1001DC0075B0FD1204851204936048120482120457
:1001EC0093604012049A7024E5372483601B24C06A
:1001FC00601224E0600924F070121206BF800D1208
:10020C0006C080081206C180031206C21204936055
:10021C000512048580F612069B12049360051204E5
:10022C008580F675B0FB12048512049360481204A5
:10023C0082120493604012049A7024E5372485607E
:10024C001B24C0601224E0600924F070121206C353
:10025C00800D1206C480081206C580031206C61251
:10026C000493600512048580F612069B12049360B9
:10027C000512048580F675B0F7120485120493609C
:10028C0048120482120493604012049A7024E537D9
:10029C002489601B24C0601224E0600924F07012D1
:1002AC001206C7800D1206C880081206C9800312F8
:1002BC0006CA120493600512048580F612069B127E
:0902CC000493600512048580F61C
:0102D5002206
:06000300C2B51204A422A4
:0606A400D2B51204A422ED
:0506B5007F01020003BB
:10061C00AC07EC7007ED2480FF120003EC64017052
:09062C0007ED24C0FF12000322B7
:100558008B2F8A30893112061CAB2FAA30A9311291
:10056800001E6012782FE475F00112009E12001E22
:07057800FF1206A480E3223C
:0404F5008A288B299D
:1004F900E4FBFA12061CEBC3952A502BC3E52A9B91
:1005090014FD7F0A120635AC28AD29CFCDCFCECC4C
:10051900CE1200497C007D0A120049AA05EA24305E
:07052900FF1206A40B80CFB6
:0105300022A8
:10060100C2B47F381200037F0E1200037F0612006E
:0B061100037F011200037F8102000341
:0606AA001206B0C2952209
:030000000202D623
:0C02D600787FE4F6D8FD75813802031D26
:10001E00BB010689828A83E0225002E722BBFE02E0
:09002E00E32289828A83E4932213
:10003700EF8DF0A4A8F0CF8CF0A428CE8DF0A42EDD
:02004700FE2297
:10004900BC000BBE0029EF8DF084FFADF022E4CC9B
:10005900F875F008EF2FFFEE33FEEC33FCEE9DEC64
:10006900984005FCEE9DFE0FD5F0E9E4CEFD22EDAA
:10007900F8F5F0EE8420D21CFEADF075F008EF2FF4
:10008900FFED33FD4007985006D5F0F222C398FDE5
:050099000FD5F0EA2282
:1004B100C2D5E830E70FB2D5E4C39BFBE49AFAE476
:1004C10099F9E498F8EC30E717B2D51204E7120075
:1004D100EAE4C39BFBE49AFAE499F9E498F880030F
:1004E1001200EA30D50DE4C39FFFE49EFEE49DFDBA
:0404F100E49CFC2269
:10009E00FAE6FB0808E6F925F0F618E6CA3AF62263
:1002E2000206AAE493A3F8E493A34003F68001F282
:1002F20008DFF48029E493A3F85407240CC8C3331D
:10030200C4540F4420C8834004F456800146F6DFEB
:10031200E4800B01020408102040809005E2E47E94
:10032200019360BCA3FF543F30E509541FFEE493E0
:10033200A360010ECF54C025E060A840B8E493A3A7
:10034200FAE493A3F8E493A3C8C582C8CAC583CAD2
:10035200F0A3C8C582C8CAC583CADFE9DEE780BE8A
:0106000000F9
:1000AE0075F008758200EF2FFFEE33FECD33CDCC09
:1000BE0033CCC58233C5829BED9AEC99E58298408C
:1000CE000CF582EE9BFEED9AFDEC99FC0FD5F0D669
:1000DE00E4CEFBE4CDFAE4CCF9A88222B800C1B993
:1000EE000059BA002DEC8BF084CFCECDFCE5F0CBD1
:1000FE00F97818EF2FFFEE33FEED33FDEC33FCEB0A
:10010E0033FB10D703994004EB99FB0FD8E5E4F9C4
:10011E00FA227818EF2FFFEE33FEED33FDEC33FCB1
:10012E00C933C910D7059BE99A4007EC9BFCE99AA5
:10013E00F90FD8E0E4C9FAE4CCFB2275F010EF2FEA
:10014E00FFEE33FEED33FDCC33CCC833C810D707EA
:10015E009BEC9AE899400AED9BFDEC9AFCE899F825
:0E016E000FD5F0DAE4CDFBE4CCFAE4C8F922B8
:00000001FF
