:1006C0003F065B4F666D7D077F6F777C395E797182
:1006D00000FEFDFBF7EFDF003F0006005B004F0070
:1006E00066006D007D0007007F006F0077007C00D2
:0706F00039005E0079007182
:10079A000A0A4D656E20597568616E000C1431386D
:0E07AA0030353031303031393600020802C9A6
:10077A00E4FDFCC3ED9FEC9E5015E4FBFA0BBB00B5
:0F078A00010AEB64714A70F50DBD00010C80E4AB
:01079900223D
:09000E00007F027EC7DEFEDFFC6C
:0100170022C6
:070821008F80120828D2B4F9
:09082800007F047E92DEFEDFFC7D
:0108310022A4
:08083C007F097EF4DEFEDFFC03
:010844002291
:040809008F38A90576
:10080D007F017E00AD0119ED6009AD387C0012024B
:03081D007B80F1EC
:0108200022B5
:1005A3008E328F33D2A9758901AE32AF33AB07AA2E
:1005B30006E4C39BFFE49AFE74019400FDE49400F7
:1005C300FCE4FB7A01F9F81206408F8CAE32AF33AC
:1005D300AB07AA06E4C39BFFE49AFE74019400FDF3
:1005E300E49400FCE4FB7A01F9F8120640AF038FB0
:0205F3008A225A
:0100180022C5
:03000B0002043CB0
:10043C00C0E0C0F0C083C082C0D075D000C000C086
:0D044C0001C002C003C004C005C006C00707
:10045900752BC3752C50AE2BAF2CAB07AA06E4C382
:100469009BFFE49AFE74019400FDE49400FCE4FB14
:100479007A01F9F81206408F8CAE2BAF2CAB07AA84
:1004890006E4C39BFFE49AFE74019400FDE4940022
:10049900FCE4FB7A01F9F8120640AF038F8A1200D7
:0104A900183A
:1004AA00D007D006D005D004D003D002D001D000A6
:0B04BA00D0D0D082D083D0F0D0E03250
:1005F5008E348F35D2ABAB07AA06E4C39BFFE49AD2
:10060500FE74019400FDE49400FCE4FB7A01F9F822
:100615001206408F8DAE34AF35AB07AA06E4C39BF7
:10062500FFE49AFE74019400FDE49400FCE4FB7A77
:0B06350001F9F8120640AF038F8B2282
:0100190022C4
:03001B000204C517
:1004C500C0E0C0F0C083C082C0D075D000C000C0FD
:0D04D50001C002C003C004C005C006C0077E
:1004E200752DC3752E50AE2DAF2EAB07AA06E4C3F1
:1004F2009BFFE49AFE74019400FDE49400FCE4FB8B
:100502007A01F9F81206408F8DAE2DAF2EAB07AAF5
:1005120006E4C39BFFE49AFE74019400FDE4940098
:10052200FCE4FB7A01F9F8120640AF038F8B12004C
:0105320019AF
:10053300D007D006D005D004D003D002D001D0001C
:0B054300D0D0D082D083D0F0D0E032C6
:05084D00C2A6C2A722B3
:1007B900D2A6ED9006C093F580C2A67580FFD2A798
:0C07C900EF9006D193F580C2A702000E4D
:10072500EF75F06484FEEF75F00A8475F00A84AC09
:10073500F0EF75F00A84ABF0AD06E4FF1207B9AD32
:0D074500047F011207B9AD037F020207B95E
:1006F700AC03AB05AD07E4FF1207B9AD037F0112E9
:1007070007B9AD047F021207B9AD237F031207B9FA
:0E071700AD247F041207B9AD257F050207B996
:01001A0022C3
:01085700227E
:01085800227D
:01085900227C
:10054E0020B41212083C20B40312001A30B4FD126B
:10055E00083C30B4FD20B51212083C20B503120839
:10056E005730B5FD12083C30B5FD20B61212083CCE
:10057E0020B60312085830B6FD12083C30B6FD20E6
:10058E00B71212083C20B70312085930B7FD1208F3
:05059E003C30B7FD2216
:01085A00227B
:01085B00227A
:01085C002279
:01085D002278
:01085E002277
:01085F002276
:010860002275
:010861002274
:010862002273
:010863002272
:010864002271
:010865002270
:01086600226F
:01086700226E
:01086800226D
:01086900226C
:10001E00E4F536F53775B0FEAFB0F5368F3753379A
:10002E00F0F536E53764F04536607812083CAFB02F
:10003E007536008F375337F0753600E53764F04567
:10004E00366060AFB07536008F37E5367024E53711
:10005E002482601B24C0601224E0600924F0701218
:10006E0012085A800D12085B800812085C80031279
:10007E00085DE53764F04536600FAFB07536008F1A
:10008E00375337F075360080E912083CE53764F0D7
:10009E004536600FAFB07536008F375337F0753673
:1000AE000080E975B0FDAFB07536008F375337F06D
:1000BE00753600E53764F04536607812083CAFB00F
:1000CE007536008F375337F0753600E53764F045D7
:1000DE00366060AFB07536008F37E5367024E53781
:1000EE002483601B24C0601224E0600924F0701287
:1000FE0012085E800D12085F8008120860800312DD
:10010E000861E53764F04536600FAFB07536008F85
:10011E00375337F075360080E912083CE53764F046
:10012E004536600FAFB07536008F375337F07536E2
:10013E000080E975B0FBAFB07536008F375337F0DE
:10014E00753600E53764F04536607812083CAFB07E
:10015E007536008F375337F0753600E53764F04546
:10016E00366060AFB07536008F37E5367024E537F0
:10017E002485601B24C0601224E0600924F07012F4
:10018E00120862800D120863800812086480031240
:10019E000865E53764F04536600FAFB07536008FF1
:1001AE00375337F075360080E912083CE53764F0B6
:1001BE004536600FAFB07536008F375337F0753652
:1001CE000080E975B0F7AFB07536008F375337F052
:1001DE00753600E53764F04536607812083CAFB0EE
:1001EE007536008F375337F0753600E53764F045B6
:1001FE00366060AFB07536008F37E5367024E53760
:10020E002489601B24C0601224E0600924F070125F
:10021E00120866800D1208678008120868800312A3
:10022E000869E53764F04536600FAFB07536008F5C
:10023E00375337F075360080E912083CE53764F025
:10024E004536600FAFB07536008F375337F07536C1
:03025E000080E934
:01026100227A
:08000300C2B5120821C2B422AB
:08084500D2B5120821C2B42251
:050852007F010200031C
:1007F000AC07EC7007ED2480FF120003EC6401707D
:0908000007ED24C0FF12000322E1
:100752008B2F8A3089311207F0AB2FAA30A93112C0
:10076200026260130531E5317002053014F912029C
:0807720062FF12084580E2223B
:040684008A288B290C
:10068800E4FBFA1207F0EBC3952A502BC3E52A9B2B
:1006980014FD7F0A120809AC28AD29CFCDCFCECCE6
:1006A800CE12028D7C007D0A12028DAA05EA243042
:0706B800FF1208450B80CF83
:0106BF002218
:1007D500C2B47F381200037F0E1200037F06120099
:0B07E500037F011200037F810200036C
:0A08320012084D7D067F030207B98E
:030000000203B048
:0C03B000787FE4F6D8FD7581380203F771
:10026200BB010689828A83E0225002E722BBFE029A
:09027200E32289828A83E49322CD
:10027B00EF8DF0A4A8F0CF8CF0A428CE8DF0A42E97
:02028B00FE2251
:10028D00BC000BBE0029EF8DF084FFADF022E4CC55
:10029D00F875F008EF2FFFEE33FEEC33FCEE9DEC1E
:1002AD00984005FCEE9DFE0FD5F0E9E4CEFD22ED64
:1002BD00F8F5F0EE8420D21CFEADF075F008EF2FAE
:1002CD00FFED33FD4007985006D5F0F222C398FD9F
:0502DD000FD5F0EA223C
:10064000C2D5E830E70FB2D5E4C39BFBE49AFAE4E5
:1006500099F9E498F8EC30E717B2D5120676120350
:100660001EE4C39BFBE49AFAE499F9E498F880034A
:1006700012031E30D50DE4C39FFFE49EFEE49DFDF2
:04068000E49CFC22D8
:1003BC00020832E493A3F8E493A34003F68001F21D
:1003CC0008DFF48029E493A3F85407240CC8C33342
:1003DC00C4540F4420C8834004F456800146F6DF11
:1003EC00E4800B010204081020408090079AE47E00
:1003FC00019360BCA3FF543F30E509541FFEE49306
:10040C00A360010ECF54C025E060A840B8E493A3CC
:10041C00FAE493A3F8E493A3C8C582C8CAC583CAF7
:10042C00F0A3C8C582C8CAC583CADFE9DEE780BEAF
:0107B8000040
:1002E20075F008758200EF2FFFEE33FECD33CDCCD3
:1002F20033CCC58233C5829BED9AEC99E582984056
:100302000CF582EE9BFEED9AFDEC99FC0FD5F0D632
:10031200E4CEFBE4CDFAE4CCF9A88222B800C1B95C
:100322000059BA002DEC8BF084CFCECDFCE5F0CB9A
:10033200F97818EF2FFFEE33FEED33FDEC33FCEBD3
:1003420033FB10D703994004EB99FB0FD8E5E4F98E
:10035200FA227818EF2FFFEE33FEED33FDEC33FC7B
:10036200C933C910D7059BE99A4007EC9BFCE99A6F
:10037200F90FD8E0E4C9FAE4CCFB2275F010EF2FB4
:10038200FFEE33FEED33FDCC33CCC833C810D707B4
:100392009BEC9AE899400AED9BFDEC9AFCE899F8EF
:0E03A2000FD5F0DAE4CDFBE4CCFAE4C8F92282
:00000001FF
