:100691003F065B4F666D7D077F6F777C395E7971B1
:0806A10000FEFDFBF7EFDFC0D6
:1005E3000A0C4D656E20597568616E000C16313822
:1005F30030353031303031393600020A02C9012238
:050603000102080000E7
:10046100AE2DAF2EAB07AA06E4C39BFFE49AFE7440
:10047100019400FDE49400FCE4FB7A01F9F8020424
:10048100B11206E0AFB07539008F3A533AF07539C1
:100491000022E53A64F0453922AFB07539008F3A50
:1004A100E539228F801206D6D2B41206D6C2B42202
:10060900E4FDFCC3ED9FEC9E5015E4FBFA0BBB0027
:0F061900010AEB64714A70F50DBD00010C80E41D
:0106280022AF
:09000E00007F027EC7DEFEDFFC6C
:0100170022C6
:0906D600007F047E92DEFEDFFCD1
:0106DF0022F8
:0806E0007F097EF4DEFEDFFC61
:0106E80022EF
:040679008F3BA90505
:10067D007F017E00AD0119ED6009AD3B7C001200DC
:03068D003780F1C2
:010690002247
:07000300C2A6C2A7D2AF2282
:1006C0008E2D8F2ED2A97589011204618F8C120490
:0606D00061AF038F8A22D6
:030018000522229C
:03000B000203628B
:10036200C0E0C0F0C083C082C0D075D000C000C061
:0D03720001C002C003C004C005C006C007E2
:10037F007529C3752A50AE29AF2A1204658F8CAE2A
:0D038F0029AF2A120465AF038F8A120018EF
:10039C00D007D006D005D004D003D002D001D000B5
:0B03AC00D0D0D082D083D0F0D0E0325F
:1006A9008E378F38D2AB1204658F8DAE37AF3812C3
:0706B9000465AF038F8B22E3
:01000A0022D3
:03001B000203B726
:1003B700C0E0C0F0C083C082C0D075D000C000C00C
:0D03C70001C002C003C004C005C006C0078D
:1003D400752BC3752C50AE2BAF2C1204658F8DAECC
:0D03E4002BAF2C120465AF038F8B12000AA3
:1003F100D007D006D005D004D003D002D001D00060
:0B040100D0D0D082D083D0F0D0E03209
:10062900D2A6ED90069193F580C2A67580FFD2A758
:0C063900EF9006A293F580C2A702000E0D
:10058F00EF75F06484FEEF75F00A8475F00A84ACA1
:10059F00F0EF75F00A84ABF0AD06E4FF120629AD5B
:0D05AF00047F01120629AD037F0202062918
:10056100AC03AB05AD07E4FF120629AD037F011211
:100571000629AD047F02120629AD267F0312062942
:0E058100AD277F04120629AD287F050206294A
:0106FA0022DD
:0106FB0022DC
:0106FC0022DB
:0106FD0022DA
:10040C0020B4121206E020B4031206FA30B4FD1226
:10041C0006E030B4FD20B5121206E020B50312063A
:10042C00FB30B5FD1206E030B5FD20B6121206E029
:10043C0020B6031206FC30B6FD1206E030B6FD20E5
:10044C00B7121206E020B7031206FD30B7FD1206F4
:05045C00E030B7FD22B5
:0106FE0022D9
:0106FF0022D8
:0107000022D6
:0107010022D5
:0107020022D4
:0107030022D3
:0107040022D2
:0107050022D1
:0107060022D0
:0107070022CF
:0107080022CE
:0107090022CD
:01070A0022CC
:01070B0022CB
:01070C0022CA
:01070D0022C9
:10017C00E4F539F53A75B0FEAFB0F5398F3A533A2C
:10018C00F0F5391204936048120482120493604013
:10019C0012049A7024E53A2482601B24C060122455
:1001AC00E0600924F070121206FE800D1206FF802A
:1001BC000812070080031207011204936005120451
:1001CC008580F61206E0120493600512048580F611
:1001DC0075B0FD1204851204936048120482120457
:1001EC0093604012049A7024E53A2483601B24C067
:1001FC00601224E0600924F07012120702800D12C4
:10020C000703800812070480031207051204936089
:10021C000512048580F61206E012049360051204A0
:10022C008580F675B0FB12048512049360481204A5
:10023C0082120493604012049A7024E53A2485607B
:10024C001B24C0601224E0600924F070121207060F
:10025C00800D120707800812070880031207091285
:10026C000493600512048580F61206E01204936074
:10027C000512048580F675B0F7120485120493609C
:10028C0048120482120493604012049A7024E53AD6
:10029C002489601B24C0601224E0600924F07012D1
:1002AC0012070A800D12070B800812070C8003122C
:1002BC00070D120493600512048580F61206E012F5
:0902CC000493600512048580F61C
:0102D5002206
:0606E900C2B51204A422B8
:0606EF00D2B51204A422A2
:0506F5007F010206E98F
:10066000AC07EC7007ED2480FF1206E9EC64017022
:0906700007ED24C0FF1206E92287
:1005BC008B348A358936120660AB34AA35A93612CB
:1005CC00001E60127834E475F00112009E12001EB9
:0705DC00FF1206EF80E3228D
:0404F5008A318B328B
:1004F900E4FBFA120660EBC39533502BC3E5339B3B
:1005090014FD7F0A120679AC31AD32CFCDCFCECCF6
:10051900CE1200497C007D0A120049AA05EA24305E
:07052900FF1206EF0B80CF6B
:0105300022A8
:10064500C2B47F381206E97F0E1206E97F0612064C
:0B065500E97F011206E97F810206E93F
:100531001200037F507EC31206C0D28CE5226414E0
:100541007017F5220509E50970020508B4E80AE506
:1005510008B40305E4F508F509AF0912058F80DC3D
:030000000202D623
:0C02D600787FE4F6D8FD75813B02031D23
:10001E00BB010689828A83E0225002E722BBFE02E0
:09002E00E32289828A83E4932213
:10003700EF8DF0A4A8F0CF8CF0A428CE8DF0A42EDD
:02004700FE2297
:10004900BC000BBE0029EF8DF084FFADF022E4CC9B
:10005900F875F008EF2FFFEE33FEEC33FCEE9DEC64
:10006900984005FCEE9DFE0FD5F0E9E4CEFD22EDAA
:10007900F8F5F0EE8420D21CFEADF075F008EF2FF4
:10008900FFED33FD4007985006D5F0F222C398FDE5
:050099000FD5F0EA2282
:1004B100C2D5E830E70FB2D5E4C39BFBE49AFAE476
:1004C10099F9E498F8EC30E717B2D51204E7120075
:1004D100EAE4C39BFBE49AFAE499F9E498F880030F
:1004E1001200EA30D50DE4C39FFFE49EFEE49DFDBA
:0404F100E49CFC2269
:10009E00FAE6FB0808E6F925F0F618E6CA3AF62263
:1002E200020531E493A3F8E493A34003F68001F2FC
:1002F20008DFF48029E493A3F85407240CC8C3331D
:10030200C4540F4420C8834004F456800146F6DFEB
:10031200E4800B01020408102040809005E3E47E93
:10032200019360BCA3FF543F30E509541FFEE493E0
:10033200A360010ECF54C025E060A840B8E493A3A7
:10034200FAE493A3F8E493A3C8C582C8CAC583CAD2
:10035200F0A3C8C582C8CAC583CADFE9DEE780BE8A
:0106080000F1
:1000AE0075F008758200EF2FFFEE33FECD33CDCC09
:1000BE0033CCC58233C5829BED9AEC99E58298408C
:1000CE000CF582EE9BFEED9AFDEC99FC0FD5F0D669
:1000DE00E4CEFBE4CDFAE4CCF9A88222B800C1B993
:1000EE000059BA002DEC8BF084CFCECDFCE5F0CBD1
:1000FE00F97818EF2FFFEE33FEED33FDEC33FCEB0A
:10010E0033FB10D703994004EB99FB0FD8E5E4F9C4
:10011E00FA227818EF2FFFEE33FEED33FDEC33FCB1
:10012E00C933C910D7059BE99A4007EC9BFCE99AA5
:10013E00F90FD8E0E4C9FAE4CCFB2275F010EF2FEA
:10014E00FFEE33FEED33FDCC33CCC833C810D707EA
:10015E009BEC9AE899400AED9BFDEC9AFCE899F825
:0E016E000FD5F0DAE4CDFBE4CCFAE4C8F922B8
:00000001FF
