:1005B9003F065B4F666D7D077F6F777C395E79718A
:0705C90000FEFDFBF7EFDF70
:1003D500AE1AAF1BAB07AA06E4C39BFFE49AFE74F3
:1003E500019400FDE49400FCE4FB7A01F9F80204B1
:1003F500251205FAAFB0751E008F1F531FF0751E2D
:100405000022E51F64F0451E22AFB0751E008F1F48
:10041500E51E228F801205F0D2B41205F0C2B42277
:10053600E4FDFCC3ED9FEC9E5015E4FBFA0BBB00FB
:0F054600010AEB64714A70F50DBD00010C80E4F1
:010555002283
:0905E600007F027EC7DEFEDFFC8F
:0105EF0022E9
:0905F000007F047E92DEFEDFFCB8
:0105F90022DF
:0805FA007F097EF4DEFEDFFC48
:0106020022D5
:04058A008F20A90510
:10058E007F017E00AD0119ED6009AD207C001200E7
:03059E003780F1B2
:0105A1002237
:1005D0008E1A8F1BD2A97589011203D58F8C120335
:0605E000D5AF038F8A2253
:01001A0022C3
:03000B000202D618
:1002D600C0E0C0F0C083C082C0D075D000C000C0EE
:0D02E60001C002C003C004C005C006C0076F
:1002F3007513C3751450AE13AF141203D98F8CAE9C
:0D03030013AF141203D9AF038F8A12001A32
:10031000D007D006D005D004D003D002D001D00041
:0B032000D0D0D082D083D0F0D0E032EB
:1005A2008E1C8F1DD2AB1203D98F8DAE1CAF1D12C4
:0705B20003D9AF038F8B2278
:0106140022C3
:03001B0002032BB2
:10032B00C0E0C0F0C083C082C0D075D000C000C098
:0D033B0001C002C003C004C005C006C00719
:100348007515C3751650AE15AF161203D98F8DAE3D
:0D03580015AF161203D9AF038F8B120614D8
:10036500D007D006D005D004D003D002D001D000EC
:0B037500D0D0D082D083D0F0D0E03296
:0604F3001204F9AF040D34
:1004F900D2A6EF9005B993F580C2A67580FFD2A761
:0C050900ED9005CA93F580C2A70205E63C
:0204A500AE07A0
:1004A700EE75F06484FDEE75F00A8475F00A84AC8D
:1004B700F0EE75F00A84ABF0AF05E4FD1204F3AF7C
:0504C700030D0204F921
:10051500AC03AB05E4FD1204F9AF030D1204F30DB2
:10052500AF0B1204F90DAF0C1204F90DAF0D020457
:01053500F9CC
:0106150022C2
:0106160022C1
:0106170022C0
:0106180022BF
:1003800020B4121205FA20B40312061530B4FD127F
:1003900005FA30B4FD20B5121205FA20B503120695
:1003A0001630B5FD1205FA30B5FD20B6121205FA69
:1003B00020B60312061730B6FD1205FA30B6FD203E
:1003C000B7121205FA20B70312061830B7FD12054E
:0503D000FA30B7FD2228
:0106190022BE
:01061A0022BD
:01061B0022BC
:01061C0022BB
:01061D0022BA
:01061E0022B9
:01061F0022B8
:0106200022B7
:0106210022B6
:0106220022B5
:0106230022B4
:0106240022B3
:0106250022B2
:0106260022B1
:0106270022B0
:0106280022AF
:10017C00E4F51EF51F75B0FEAFB0F51E8F1F531FB3
:10018C00F0F51E12040760481203F61204076040D3
:10019C0012040E7024E51F2482601B24C0601224FC
:1001AC00E0600924F07012120619800D12061A80F4
:1001BC000812061B800312061C12040760051203AA
:1001CC00F980F61205FA12040760051203F980F69D
:1001DC0075B0FD1203F912040760481203F61204FD
:1001EC0007604012040E7024E51F2483601B24C09A
:1001FC00601224E0600924F0701212061D800D12AA
:10020C00061E800812061F800312062012040760C7
:10021C00051203F980F61205FA12040760051203A1
:10022C00F980F675B0FB1203F9120407604812034B
:10023C00F6120407604012040E7024E51F2485603A
:10024C001B24C0601224E0600924F07012120621F5
:10025C00800D120622800812062380031206241237
:10026C00040760051203F980F61205FA1204076000
:10027C00051203F980F675B0F71203F91204076042
:10028C00481203F6120407604012040E7024E51F96
:10029C002489601B24C0601224E0600924F07012D1
:1002AC00120625800D1206268008120627800312DE
:1002BC00062812040760051203F980F61205FA12DB
:0902CC00040760051203F980F635
:0102D5002206
:06060300C2B5120418222A
:06060900D2B51204182214
:05060F007F010206035B
:10057100AC07EC7007ED2480FF120603EC640170F8
:0905810007ED24C0FF120603225D
:1004CC008B178A188919120571AB17AA18A919125A
:1004DC00001E60127817E475F00112009E12001EC7
:0704EC00FF12060980E32264
:040469008A108B1159
:10046D00E4FBFA120571EBC39512502BC3E5129BF9
:10047D0014FD7F0A12058AAC10AD11CFCDCFCECCB5
:10048D00CE1200497C007D0A120049AA05EA2430EB
:07049D00FF1206090B80CFDE
:0104A4002235
:10055600C2B47F381206037F0E1206037F06120608
:0B056600037F011206037F81020603E1
:08000300C290C2A7C2A680FE54
:0300000002000EED
:0C000E00787FE4F6D8FD75812002000325
:10001E00BB010689828A83E0225002E722BBFE02E0
:09002E00E32289828A83E4932213
:10003700EF8DF0A4A8F0CF8CF0A428CE8DF0A42EDD
:02004700FE2297
:10004900BC000BBE0029EF8DF084FFADF022E4CC9B
:10005900F875F008EF2FFFEE33FEEC33FCEE9DEC64
:10006900984005FCEE9DFE0FD5F0E9E4CEFD22EDAA
:10007900F8F5F0EE8420D21CFEADF075F008EF2FF4
:10008900FFED33FD4007985006D5F0F222C398FDE5
:050099000FD5F0EA2282
:10042500C2D5E830E70FB2D5E4C39BFBE49AFAE402
:1004350099F9E498F8EC30E717B2D512045B12008D
:10044500EAE4C39BFBE49AFAE499F9E498F880039B
:100455001200EA30D50DE4C39FFFE49EFEE49DFD46
:04046500E49CFC22F5
:10009E00FAE6FB0808E6F925F0F618E6CA3AF62263
:1000AE0075F008758200EF2FFFEE33FECD33CDCC09
:1000BE0033CCC58233C5829BED9AEC99E58298408C
:1000CE000CF582EE9BFEED9AFDEC99FC0FD5F0D669
:1000DE00E4CEFBE4CDFAE4CCF9A88222B800C1B993
:1000EE000059BA002DEC8BF084CFCECDFCE5F0CBD1
:1000FE00F97818EF2FFFEE33FEED33FDEC33FCEB0A
:10010E0033FB10D703994004EB99FB0FD8E5E4F9C4
:10011E00FA227818EF2FFFEE33FEED33FDEC33FCB1
:10012E00C933C910D7059BE99A4007EC9BFCE99AA5
:10013E00F90FD8E0E4C9FAE4CCFB2275F010EF2FEA
:10014E00FFEE33FEED33FDCC33CCC833C810D707EA
:10015E009BEC9AE899400AED9BFDEC9AFCE899F825
:0E016E000FD5F0DAE4CDFBE4CCFAE4C8F922B8
:00000001FF
