:1007FD003F065B4F666D7D077F6F777C395E797144
:08080D0000FEFDFBF7EFDFC068
:10074E000A0C4D656E20597568616E000C163138B5
:10075E0030353031303031393600020802C9020AE4
:06076E0000000222000061
:10077500E4FDFCC3ED9FEC9E5015E4FBFA0BBB00BA
:0F078500010AEB64714A70F50DBD00010C80E4B0
:010794002242
:09083D00007F027EC7DEFEDFFC35
:01084600228F
:07082C008F80120833D2B4E3
:09083300007F047E92DEFEDFFC72
:01083C002299
:080847007F097EF4DEFEDFFCF8
:01084F002286
:0407E5008F3CA90597
:1007E9007F017E00AD0119ED6009AD3C7C0012026C
:0307F9007B80F111
:0107FC0022DA
:1005B3008E368F37758901AE36AF37AB07AA06E49F
:1005C300C39BFFE49AFE74019400FDE49400FCE4F1
:1005D300FB7A01F9F812064C8F8CAE36AF37AB07B6
:1005E300AA06E4C39BFFE49AFE74019400FDE4941D
:1005F30000FCE4FB7A01F9F812064CAF038F8A2260
:090850000523E5237002052222B4
:03000B0002044CA0
:10044C00C0E0C0F0C083C082C0D075D000C000C076
:0D045C0001C002C003C004C005C006C007F7
:100469007524C3752550AE24AF25AB07AA06E4C38E
:100479009BFFE49AFE74019400FDE49400FCE4FB04
:100489007A01F9F812064C8F8CAE24AF25AB07AA76
:1004990006E4C39BFFE49AFE74019400FDE4940012
:1004A900FCE4FB7A01F9F812064CAF038F8A1208B3
:0104B90050F2
:1004BA00D007D006D005D004D003D002D001D00096
:0B04CA00D0D0D082D083D0F0D0E03240
:100603008E388F39AB07AA06E4C39BFFE49AFE74C6
:10061300019400FDE49400FCE4FB7A01F9F812066E
:100623004C8F8DAE38AF39AB07AA06E4C39BFFE40A
:100633009AFE74019400FDE49400FCE4FB7A01F952
:09064300F812064CAF038F8B2264
:0100190022C4
:03001B000204D507
:1004D500C0E0C0F0C083C082C0D075D000C000C0ED
:0D04E50001C002C003C004C005C006C0076E
:1004F2007526C3752750AE26AF27AB07AA06E4C3FD
:100502009BFFE49AFE74019400FDE49400FCE4FB7A
:100512007A01F9F812064C8F8DAE26AF27AB07AAE7
:1005220006E4C39BFFE49AFE74019400FDE4940088
:10053200FCE4FB7A01F9F812064CAF038F8B120030
:01054200199F
:10054300D007D006D005D004D003D002D001D0000C
:0B055300D0D0D082D083D0F0D0E032B6
:0B000E00C2A6C2A7D2AFD2A9D2AB227B
:10079500D2A6ED9007FD93F580C2A67580FFD2A77E
:0C07A500EF90080E93F580C2A702083DFB
:1006FA00EF75F06484FEEF75F00A8475F00A84AC35
:10070A00F0EF75F00A84ABF0AD06E4FF120795AD81
:0D071A00047F01120795AD037F02020795D1
:1006CC00AC03AB05AD07E4FF120795AD037F011238
:1006DC000795AD047F02120795AD2B7F031207958A
:0E06EC00AD2C7F04120795AD2D7F05020795FA
:01001A0022C3
:01086600226F
:01086700226E
:01086800226D
:10055E0020B41212084720B40312001A30B4FD1250
:10056E00084730B4FD20B51212084720B503120813
:10057E006630B5FD12084730B5FD20B61212084799
:10058E0020B60312086730B6FD12084730B6FD20BC
:10059E00B71212084720B70312086830B7FD1208C9
:0505AE004730B7FD22FB
:01086900226C
:01086A00226B
:01086B00226A
:01086C002269
:01086D002268
:01086E002267
:01086F002266
:010870002265
:010871002264
:010872002263
:010873002262
:010874002261
:010875002260
:01087600225F
:01087700225E
:01087800225D
:10001E00E4F53AF53B75B0FEAFB0F53A8F3B533B86
:10002E00F0F53AE53B64F0453A6078120847AFB018
:10003E00753A008F3B533BF0753A00E53B64F04553
:10004E003A6060AFB0753A008F3BE53A7024E53BFD
:10005E002482601B24C0601224E0600924F0701218
:10006E00120869800D12086A800812086B8003124C
:10007E00086CE53B64F0453A600FAFB0753A008FFF
:10008E003B533BF0753A0080E9120847E53B64F0BC
:10009E00453A600FAFB0753A008F3B533BF0753A5F
:1000AE000080E975B0FDAFB0753A008F3B533BF061
:1000BE00753A00E53B64F0453A6078120847AFB0F8
:1000CE00753A008F3B533BF0753A00E53B64F045C3
:1000DE003A6060AFB0753A008F3BE53A7024E53B6D
:1000EE002483601B24C0601224E0600924F0701287
:1000FE0012086D800D12086E800812086F800312B0
:10010E000870E53B64F0453A600FAFB0753A008F6A
:10011E003B533BF0753A0080E9120847E53B64F02B
:10012E00453A600FAFB0753A008F3B533BF0753ACE
:10013E000080E975B0FBAFB0753A008F3B533BF0D2
:10014E00753A00E53B64F0453A6078120847AFB067
:10015E00753A008F3B533BF0753A00E53B64F04532
:10016E003A6060AFB0753A008F3BE53A7024E53BDC
:10017E002485601B24C0601224E0600924F07012F4
:10018E00120871800D120872800812087380031213
:10019E000874E53B64F0453A600FAFB0753A008FD6
:1001AE003B533BF0753A0080E9120847E53B64F09B
:1001BE00453A600FAFB0753A008F3B533BF0753A3E
:1001CE000080E975B0F7AFB0753A008F3B533BF046
:1001DE00753A00E53B64F0453A6078120847AFB0D7
:1001EE00753A008F3B533BF0753A00E53B64F045A2
:1001FE003A6060AFB0753A008F3BE53A7024E53B4C
:10020E002489601B24C0601224E0600924F070125F
:10021E00120875800D120876800812087780031276
:10022E000878E53B64F0453A600FAFB0753A008F41
:10023E003B533BF0753A0080E9120847E53B64F00A
:10024E00453A600FAFB0753A008F3B533BF0753AAD
:03025E000080E934
:01026100227A
:08000300C2B512082CC2B422A0
:08085900D2B512082CC2B42232
:050861007F010200030D
:1007CC00AC07EC7007ED2480FF120003EC640170A1
:0907DC0007ED24C0FF1200032206
:100727008B338A3489351207CCAB33AA34A93512F7
:10073700026260127833E475F0011202E21202627B
:07074700FF12085980E322B4
:040690008A308B31F0
:10069400E4FBFA1207CCEBC39532502BC3E5329B33
:1006A40014FD7F0A1207E5AC30AD31CFCDCFCECCEF
:1006B400CE12028D7C007D0A12028DAA05EA243036
:0706C400FF1208590B80CF63
:0106CB00220C
:1007B100C2B47F381200037F0E1200037F061200BD
:0B07C100037F011200037F8102000390
:1008150012000E752B03752C02752D017B047D05C9
:070825007F061206CC80ECF7
:030000000203C038
:0C03C000787FE4F6D8FD75813C0204074C
:10026200BB010689828A83E0225002E722BBFE029A
:09027200E32289828A83E49322CD
:10027B00EF8DF0A4A8F0CF8CF0A428CE8DF0A42E97
:02028B00FE2251
:10028D00BC000BBE0029EF8DF084FFADF022E4CC55
:10029D00F875F008EF2FFFEE33FEEC33FCEE9DEC1E
:1002AD00984005FCEE9DFE0FD5F0E9E4CEFD22ED64
:1002BD00F8F5F0EE8420D21CFEADF075F008EF2FAE
:1002CD00FFED33FD4007985006D5F0F222C398FD9F
:0502DD000FD5F0EA223C
:10064C00C2D5E830E70FB2D5E4C39BFBE49AFAE4D9
:10065C0099F9E498F8EC30E717B2D5120682120338
:10066C002EE4C39BFBE49AFAE499F9E498F880032E
:10067C0012032E30D50DE4C39FFFE49EFEE49DFDD6
:04068C00E49CFC22CC
:1002E200FAE6FB0808E6F925F0F618E6CA3AF6221D
:1003CC00020815E493A3F8E493A34003F68001F22A
:1003DC0008DFF48029E493A3F85407240CC8C33332
:1003EC00C4540F4420C8834004F456800146F6DF01
:1003FC00E4800B010204081020408090074EE47E3C
:10040C00019360BCA3FF543F30E509541FFEE493F5
:10041C00A360010ECF54C025E060A840B8E493A3BC
:10042C00FAE493A3F8E493A3C8C582C8CAC583CAE7
:10043C00F0A3C8C582C8CAC583CADFE9DEE780BE9F
:010774000084
:1002F20075F008758200EF2FFFEE33FECD33CDCCC3
:1003020033CCC58233C5829BED9AEC99E582984045
:100312000CF582EE9BFEED9AFDEC99FC0FD5F0D622
:10032200E4CEFBE4CDFAE4CCF9A88222B800C1B94C
:100332000059BA002DEC8BF084CFCECDFCE5F0CB8A
:10034200F97818EF2FFFEE33FEED33FDEC33FCEBC3
:1003520033FB10D703994004EB99FB0FD8E5E4F97E
:10036200FA227818EF2FFFEE33FEED33FDEC33FC6B
:10037200C933C910D7059BE99A4007EC9BFCE99A5F
:10038200F90FD8E0E4C9FAE4CCFB2275F010EF2FA4
:10039200FFEE33FEED33FDCC33CCC833C810D707A4
:1003A2009BEC9AE899400AED9BFDEC9AFCE899F8DF
:0E03B2000FD5F0DAE4CDFBE4CCFAE4C8F92272
:00000001FF
