:100803003F065B4F666D7D077F6F777C395E79713D
:0708130000FEFDFBF7EFDF23
:100781000A0A4D656E20597568616E000C14313886
:0E07910030353031303031393600020802C9BF
:10076100E4FDFCC3ED9FEC9E5015E4FBFA0BBB00CE
:0F077100010AEB64714A70F50DBD00010C80E4C4
:010780002256
:09000E00007F027EC7DEFEDFFC6C
:0100170022C6
:07081A008F80120821D2B407
:09082100007F047E92DEFEDFFC84
:01082A0022AB
:08082B007F097EF4DEFEDFFC14
:0108330022A2
:0407D4008F38A905AC
:1007D8007F017E00AD0119ED6009AD387C00120281
:0307E8007B80F122
:0107EB0022EB
:1005B3008E328F33D2A9758901AE32AF33AB07AA1E
:1005C30006E4C39BFFE49AFE74019400FDE49400E7
:1005D300FCE4FB7A01F9F81206508F8CAE32AF338C
:1005E300AB07AA06E4C39BFFE49AFE74019400FDE3
:1005F300E49400FCE4FB7A01F9F8120650AF038F90
:020603008A2249
:0100180022C5
:03000B0002044CA0
:10044C00C0E0C0F0C083C082C0D075D000C000C076
:0D045C0001C002C003C004C005C006C007F7
:100469007520C3752150AE20AF21AB07AA06E4C39E
:100479009BFFE49AFE74019400FDE49400FCE4FB04
:100489007A01F9F81206508F8CAE20AF21AB07AA7A
:1004990006E4C39BFFE49AFE74019400FDE4940012
:1004A900FCE4FB7A01F9F8120650AF038F8A1200B7
:0104B900182A
:1004BA00D007D006D005D004D003D002D001D00096
:0B04CA00D0D0D082D083D0F0D0E03240
:100605008E348F35D2ABAB07AA06E4C39BFFE49AC1
:10061500FE74019400FDE49400FCE4FB7A01F9F812
:100625001206508F8DAE34AF35AB07AA06E4C39BD7
:10063500FFE49AFE74019400FDE49400FCE4FB7A67
:0B06450001F9F8120650AF038F8B2262
:0100190022C4
:03001B000204D507
:1004D500C0E0C0F0C083C082C0D075D000C000C0ED
:0D04E50001C002C003C004C005C006C0076E
:1004F2007522C3752350AE22AF23AB07AA06E4C30D
:100502009BFFE49AFE74019400FDE49400FCE4FB7A
:100512007A01F9F81206508F8DAE22AF23AB07AAEB
:1005220006E4C39BFFE49AFE74019400FDE4940088
:10053200FCE4FB7A01F9F8120650AF038F8B12002C
:01054200199F
:10054300D007D006D005D004D003D002D001D0000C
:0B055300D0D0D082D083D0F0D0E032B6
:07083C00C2A6C2A7C2902270
:06071E00120724AF040DD8
:10072400D2A6EF90080393F580C2A67580FFD2A7E6
:0C073400ED90081493F580C2A702000E9F
:0206D000AE0773
:1006D200EE75F06484FDEE75F00A8475F00A84AC60
:1006E200F0EE75F00A84ABF0AF05E4FD12071EAF21
:0506F200030D020724C6
:10074000AC03AB05E4FD120724AF030D12071E0D29
:10075000AF271207240DAF281207240DAF29020777
:010760002474
:01001A0022C3
:01084800228D
:01084900228C
:01084A00228B
:10055E0020B41212082B20B40312001A30B4FD126C
:10056E00082B30B4FD20B51212082B20B50312084B
:10057E004830B5FD12082B30B5FD20B61212082BEF
:10058E0020B60312084930B6FD12082B30B6FD20F6
:10059E00B71212082B20B70312084A30B7FD120803
:0505AE002B30B7FD2217
:01084B00228A
:01084C002289
:01084D002288
:01084E002287
:01084F002286
:010850002285
:010851002284
:010852002283
:010853002282
:010854002281
:010855002280
:01085600227F
:01085700227E
:01085800227D
:01085900227C
:01085A00227B
:10001E00E4F536F53775B0FEAFB0F5368F3753379A
:10002E00F0F536E53764F04536607812082BAFB040
:10003E007536008F375337F0753600E53764F04567
:10004E00366060AFB07536008F37E5367024E53711
:10005E002482601B24C0601224E0600924F0701218
:10006E0012084B800D12084C800812084D800312A6
:10007E00084EE53764F04536600FAFB07536008F29
:10008E00375337F075360080E912082BE53764F0E8
:10009E004536600FAFB07536008F375337F0753673
:1000AE000080E975B0FDAFB07536008F375337F06D
:1000BE00753600E53764F04536607812082BAFB020
:1000CE007536008F375337F0753600E53764F045D7
:1000DE00366060AFB07536008F37E5367024E53781
:1000EE002483601B24C0601224E0600924F0701287
:1000FE0012084F800D12085080081208518003120A
:10010E000852E53764F04536600FAFB07536008F94
:10011E00375337F075360080E912082BE53764F057
:10012E004536600FAFB07536008F375337F07536E2
:10013E000080E975B0FBAFB07536008F375337F0DE
:10014E00753600E53764F04536607812082BAFB08F
:10015E007536008F375337F0753600E53764F04546
:10016E00366060AFB07536008F37E5367024E537F0
:10017E002485601B24C0601224E0600924F07012F4
:10018E00120853800D12085480081208558003126D
:10019E000856E53764F04536600FAFB07536008F00
:1001AE00375337F075360080E912082BE53764F0C7
:1001BE004536600FAFB07536008F375337F0753652
:1001CE000080E975B0F7AFB07536008F375337F052
:1001DE00753600E53764F04536607812082BAFB0FF
:1001EE007536008F375337F0753600E53764F045B6
:1001FE00366060AFB07536008F37E5367024E53760
:10020E002489601B24C0601224E0600924F070125F
:10021E00120857800D1208588008120859800312D0
:10022E00085AE53764F04536600FAFB07536008F6B
:10023E00375337F075360080E912082BE53764F036
:10024E004536600FAFB07536008F375337F07536C1
:03025E000080E934
:01026100227A
:08000300C2B512081AC2B422B2
:08083400D2B512081AC2B42269
:050843007F010200032B
:1007BB00AC07EC7007ED2480FF120003EC640170B2
:0907CB0007ED24C0FF1200032217
:1006F7008B2F8A3089311207BBAB2FAA30A9311251
:1007070002626012782FE475F0011202E2120262AF
:07071700FF12083480E32209
:040694008A2C8B2DF4
:10069800E4FBFA1207BBEBC3952E502BC3E52E9B48
:1006A80014FD7F0A1207D4AC2CAD2DCFCDCFCECC04
:1006B800CE12028D7C007D0A12028DAA05EA243032
:0706C800FF1208340B80CF84
:0106CF002208
:1007A000C2B47F381200037F0E1200037F061200CE
:0B07B000037F011200037F81020003A1
:1007EC0012083C7527037528027529017B047D05C9
:0707FC007F0612074080FE9A
:030000000203C038
:0C03C000787FE4F6D8FD75813802040750
:10026200BB010689828A83E0225002E722BBFE029A
:09027200E32289828A83E49322CD
:10027B00EF8DF0A4A8F0CF8CF0A428CE8DF0A42E97
:02028B00FE2251
:10028D00BC000BBE0029EF8DF084FFADF022E4CC55
:10029D00F875F008EF2FFFEE33FEEC33FCEE9DEC1E
:1002AD00984005FCEE9DFE0FD5F0E9E4CEFD22ED64
:1002BD00F8F5F0EE8420D21CFEADF075F008EF2FAE
:1002CD00FFED33FD4007985006D5F0F222C398FD9F
:0502DD000FD5F0EA223C
:10065000C2D5E830E70FB2D5E4C39BFBE49AFAE4D5
:1006600099F9E498F8EC30E717B2D5120686120330
:100670002EE4C39BFBE49AFAE499F9E498F880032A
:1006800012032E30D50DE4C39FFFE49EFEE49DFDD2
:04069000E49CFC22C8
:1002E200FAE6FB0808E6F925F0F618E6CA3AF6221D
:1003CC000207ECE493A3F8E493A34003F68001F254
:1003DC0008DFF48029E493A3F85407240CC8C33332
:1003EC00C4540F4420C8834004F456800146F6DF01
:1003FC00E4800B0102040810204080900781E47E09
:10040C00019360BCA3FF543F30E509541FFEE493F5
:10041C00A360010ECF54C025E060A840B8E493A3BC
:10042C00FAE493A3F8E493A3C8C582C8CAC583CAE7
:10043C00F0A3C8C582C8CAC583CADFE9DEE780BE9F
:01079F000059
:1002F20075F008758200EF2FFFEE33FECD33CDCCC3
:1003020033CCC58233C5829BED9AEC99E582984045
:100312000CF582EE9BFEED9AFDEC99FC0FD5F0D622
:10032200E4CEFBE4CDFAE4CCF9A88222B800C1B94C
:100332000059BA002DEC8BF084CFCECDFCE5F0CB8A
:10034200F97818EF2FFFEE33FEED33FDEC33FCEBC3
:1003520033FB10D703994004EB99FB0FD8E5E4F97E
:10036200FA227818EF2FFFEE33FEED33FDEC33FC6B
:10037200C933C910D7059BE99A4007EC9BFCE99A5F
:10038200F90FD8E0E4C9FAE4CCFB2275F010EF2FA4
:10039200FFEE33FEED33FDCC33CCC833C810D707A4
:1003A2009BEC9AE899400AED9BFDEC9AFCE899F8DF
:0E03B2000FD5F0DAE4CDFBE4CCFAE4C8F92272
:00000001FF
